{
  "contractName": "AssetRegistry",
  "abi": [
    {
      "constant": false,
      "inputs": [],
      "name": "unpause",
      "outputs": [],
      "payable": false,
      "stateMutability": "nonpayable",
      "type": "function"
    },
    {
      "constant": true,
      "inputs": [
        {
          "name": "account",
          "type": "address"
        }
      ],
      "name": "isPauser",
      "outputs": [
        {
          "name": "",
          "type": "bool"
        }
      ],
      "payable": false,
      "stateMutability": "view",
      "type": "function"
    },
    {
      "constant": true,
      "inputs": [],
      "name": "paused",
      "outputs": [
        {
          "name": "",
          "type": "bool"
        }
      ],
      "payable": false,
      "stateMutability": "view",
      "type": "function"
    },
    {
      "constant": false,
      "inputs": [],
      "name": "renouncePauser",
      "outputs": [],
      "payable": false,
      "stateMutability": "nonpayable",
      "type": "function"
    },
    {
      "constant": false,
      "inputs": [],
      "name": "renounceOwnership",
      "outputs": [],
      "payable": false,
      "stateMutability": "nonpayable",
      "type": "function"
    },
    {
      "constant": false,
      "inputs": [
        {
          "name": "account",
          "type": "address"
        }
      ],
      "name": "addPauser",
      "outputs": [],
      "payable": false,
      "stateMutability": "nonpayable",
      "type": "function"
    },
    {
      "constant": false,
      "inputs": [],
      "name": "pause",
      "outputs": [],
      "payable": false,
      "stateMutability": "nonpayable",
      "type": "function"
    },
    {
      "constant": true,
      "inputs": [],
      "name": "owner",
      "outputs": [
        {
          "name": "",
          "type": "address"
        }
      ],
      "payable": false,
      "stateMutability": "view",
      "type": "function"
    },
    {
      "constant": true,
      "inputs": [],
      "name": "isOwner",
      "outputs": [
        {
          "name": "",
          "type": "bool"
        }
      ],
      "payable": false,
      "stateMutability": "view",
      "type": "function"
    },
    {
      "constant": false,
      "inputs": [
        {
          "name": "newOwner",
          "type": "address"
        }
      ],
      "name": "transferOwnership",
      "outputs": [],
      "payable": false,
      "stateMutability": "nonpayable",
      "type": "function"
    },
    {
      "inputs": [
        {
          "name": "_stableTokenAddress",
          "type": "address"
        },
        {
          "name": "_mainContractAddress",
          "type": "address"
        }
      ],
      "payable": false,
      "stateMutability": "nonpayable",
      "type": "constructor"
    },
    {
      "anonymous": false,
      "inputs": [
        {
          "indexed": true,
          "name": "previousOwner",
          "type": "address"
        },
        {
          "indexed": true,
          "name": "newOwner",
          "type": "address"
        }
      ],
      "name": "OwnershipTransferred",
      "type": "event"
    },
    {
      "anonymous": false,
      "inputs": [
        {
          "indexed": false,
          "name": "account",
          "type": "address"
        }
      ],
      "name": "Paused",
      "type": "event"
    },
    {
      "anonymous": false,
      "inputs": [
        {
          "indexed": false,
          "name": "account",
          "type": "address"
        }
      ],
      "name": "Unpaused",
      "type": "event"
    },
    {
      "anonymous": false,
      "inputs": [
        {
          "indexed": true,
          "name": "account",
          "type": "address"
        }
      ],
      "name": "PauserAdded",
      "type": "event"
    },
    {
      "anonymous": false,
      "inputs": [
        {
          "indexed": true,
          "name": "account",
          "type": "address"
        }
      ],
      "name": "PauserRemoved",
      "type": "event"
    },
    {
      "anonymous": false,
      "inputs": [
        {
          "indexed": false,
          "name": "tokenAddress",
          "type": "address"
        },
        {
          "indexed": false,
          "name": "assetOwner",
          "type": "address"
        },
        {
          "indexed": false,
          "name": "id",
          "type": "uint256"
        }
      ],
      "name": "AssetRecordCreated",
      "type": "event"
    },
    {
      "anonymous": false,
      "inputs": [
        {
          "indexed": true,
          "name": "tokenAddress",
          "type": "address"
        },
        {
          "indexed": false,
          "name": "id",
          "type": "uint256"
        }
      ],
      "name": "AssetRecordUpdated",
      "type": "event"
    },
    {
      "anonymous": false,
      "inputs": [
        {
          "indexed": false,
          "name": "id",
          "type": "uint256"
        },
        {
          "indexed": true,
          "name": "tokenAddress",
          "type": "address"
        }
      ],
      "name": "AssetFunded",
      "type": "event"
    },
    {
      "anonymous": false,
      "inputs": [
        {
          "indexed": true,
          "name": "tokenAddress",
          "type": "address"
        },
        {
          "indexed": false,
          "name": "investmentOwner",
          "type": "address"
        }
      ],
      "name": "AssetFullyInvested",
      "type": "event"
    },
    {
      "constant": false,
      "inputs": [
        {
          "name": "_contractAddress",
          "type": "address"
        }
      ],
      "name": "setMainContractAddress",
      "outputs": [],
      "payable": false,
      "stateMutability": "nonpayable",
      "type": "function"
    },
    {
      "constant": false,
      "inputs": [
        {
          "name": "_owner",
          "type": "address"
        },
        {
          "name": "_name",
          "type": "string"
        },
        {
          "name": "_valueUSD",
          "type": "uint256"
        },
        {
          "name": "_cap",
          "type": "uint256"
        },
        {
          "name": "_annualizedROI",
          "type": "uint256"
        },
        {
          "name": "_projectedValueUSD",
          "type": "uint256"
        },
        {
          "name": "_timeframeMonths",
          "type": "uint256"
        },
        {
          "name": "_valuePerTokenCents",
          "type": "uint256"
        },
        {
          "name": "_fileURL",
          "type": "string"
        }
      ],
      "name": "addAsset",
      "outputs": [],
      "payable": false,
      "stateMutability": "nonpayable",
      "type": "function"
    },
    {
      "constant": false,
      "inputs": [
        {
          "name": "_id",
          "type": "uint256"
        },
        {
          "name": "_fileURL",
          "type": "string"
        }
      ],
      "name": "addAssetData",
      "outputs": [],
      "payable": false,
      "stateMutability": "nonpayable",
      "type": "function"
    },
    {
      "constant": false,
      "inputs": [
        {
          "name": "_tokenAddress",
          "type": "address"
        },
        {
          "name": "_remainingSupply",
          "type": "uint256"
        },
        {
          "name": "_tokensMinted",
          "type": "uint256"
        }
      ],
      "name": "updateAssetLookup",
      "outputs": [
        {
          "name": "",
          "type": "bool"
        }
      ],
      "payable": false,
      "stateMutability": "nonpayable",
      "type": "function"
    },
    {
      "constant": false,
      "inputs": [
        {
          "name": "_amountStable",
          "type": "uint256"
        },
        {
          "name": "_assetId",
          "type": "uint256"
        }
      ],
      "name": "fundAsset",
      "outputs": [],
      "payable": false,
      "stateMutability": "nonpayable",
      "type": "function"
    },
    {
      "constant": true,
      "inputs": [],
      "name": "calculateTotalProjectedValue",
      "outputs": [
        {
          "name": "",
          "type": "uint256"
        }
      ],
      "payable": false,
      "stateMutability": "view",
      "type": "function"
    },
    {
      "constant": true,
      "inputs": [],
      "name": "calculateTotalCurrentValue",
      "outputs": [
        {
          "name": "",
          "type": "uint256"
        }
      ],
      "payable": false,
      "stateMutability": "view",
      "type": "function"
    },
    {
      "constant": true,
      "inputs": [
        {
          "name": "_tokenAddress",
          "type": "address"
        }
      ],
      "name": "getAssetIdByToken",
      "outputs": [
        {
          "name": "",
          "type": "uint256"
        }
      ],
      "payable": false,
      "stateMutability": "view",
      "type": "function"
    },
    {
      "constant": true,
      "inputs": [],
      "name": "getActiveAssetIds",
      "outputs": [
        {
          "name": "",
          "type": "uint256[]"
        }
      ],
      "payable": false,
      "stateMutability": "view",
      "type": "function"
    },
    {
      "constant": true,
      "inputs": [
        {
          "name": "_owner",
          "type": "address"
        }
      ],
      "name": "getActiveAssetIdsOf",
      "outputs": [
        {
          "name": "",
          "type": "uint256[]"
        }
      ],
      "payable": false,
      "stateMutability": "view",
      "type": "function"
    },
    {
      "constant": true,
      "inputs": [],
      "name": "getAssetsCount",
      "outputs": [
        {
          "name": "",
          "type": "uint256"
        }
      ],
      "payable": false,
      "stateMutability": "view",
      "type": "function"
    },
    {
      "constant": true,
      "inputs": [
        {
          "name": "_id",
          "type": "uint256"
        }
      ],
      "name": "getAssetById",
      "outputs": [
        {
          "name": "owner",
          "type": "address"
        },
        {
          "name": "tokenAddress",
          "type": "address"
        },
        {
          "name": "filled",
          "type": "bool"
        },
        {
          "name": "funded",
          "type": "bool"
        },
        {
          "name": "fileURL",
          "type": "string"
        }
      ],
      "payable": false,
      "stateMutability": "view",
      "type": "function"
    },
    {
      "constant": true,
      "inputs": [],
      "name": "fillableAssetsCount",
      "outputs": [
        {
          "name": "",
          "type": "uint256"
        }
      ],
      "payable": false,
      "stateMutability": "view",
      "type": "function"
    },
    {
      "constant": true,
      "inputs": [],
      "name": "minFillableAmount",
      "outputs": [
        {
          "name": "",
          "type": "uint256"
        }
      ],
      "payable": false,
      "stateMutability": "view",
      "type": "function"
    },
    {
      "constant": true,
      "inputs": [
        {
          "name": "_id",
          "type": "uint256"
        }
      ],
      "name": "getFillableAssetAddressAt",
      "outputs": [
        {
          "name": "tokenAddress",
          "type": "address"
        }
      ],
      "payable": false,
      "stateMutability": "view",
      "type": "function"
    }
  ],
  "bytecode": "0x60806040523480156200001157600080fd5b5060405160408062005851833981018060405260408110156200003357600080fd5b8101908080519060200190929190805190602001909291905050506200005f336200042260201b60201c565b6000600160006101000a81548160ff021916908315150217905550336001806101000a81548173ffffffffffffffffffffffffffffffffffffffff021916908373ffffffffffffffffffffffffffffffffffffffff1602179055506001809054906101000a900473ffffffffffffffffffffffffffffffffffffffff1673ffffffffffffffffffffffffffffffffffffffff16600073ffffffffffffffffffffffffffffffffffffffff167f8be0079c531659141344cd1fd0a4f28419497f9722a3daafe3b4186f6b6457e060405160405180910390a381600260006101000a81548173ffffffffffffffffffffffffffffffffffffffff021916908373ffffffffffffffffffffffffffffffffffffffff16021790555080600360006101000a81548173ffffffffffffffffffffffffffffffffffffffff021916908373ffffffffffffffffffffffffffffffffffffffff16021790555060076040518060a00160405280600073ffffffffffffffffffffffffffffffffffffffff168152602001600073ffffffffffffffffffffffffffffffffffffffff168152602001600015158152602001600015158152602001604051806020016040528060008152508152509080600181540180825580915050906001820390600052602060002090600302016000909192909190915060008201518160000160006101000a81548173ffffffffffffffffffffffffffffffffffffffff021916908373ffffffffffffffffffffffffffffffffffffffff16021790555060208201518160010160006101000a81548173ffffffffffffffffffffffffffffffffffffffff021916908373ffffffffffffffffffffffffffffffffffffffff16021790555060408201518160010160146101000a81548160ff02191690831515021790555060608201518160010160156101000a81548160ff02191690831515021790555060808201518160020190805190602001906200033b929190620005cc565b5050505060086040518060400160405280600073ffffffffffffffffffffffffffffffffffffffff16815260200160008152509080600181540180825580915050906001820390600052602060002090600202016000909192909190915060008201518160000160006101000a81548173ffffffffffffffffffffffffffffffffffffffff021916908373ffffffffffffffffffffffffffffffffffffffff1602179055506020820151816001015550505060046000908060018154018082558091505090600182039060005260206000200160009091929091909150555050506200067b565b6200043d8160006200048360201b6200250e1790919060201c565b8073ffffffffffffffffffffffffffffffffffffffff167f6719d08c1888103bea251a4ed56406bd0c3e69723c8a1686e017e7bbe159b6f860405160405180910390a250565b600073ffffffffffffffffffffffffffffffffffffffff168173ffffffffffffffffffffffffffffffffffffffff161415620004be57600080fd5b620004d082826200053960201b60201c565b15620004db57600080fd5b60018260000160008373ffffffffffffffffffffffffffffffffffffffff1673ffffffffffffffffffffffffffffffffffffffff16815260200190815260200160002060006101000a81548160ff0219169083151502179055505050565b60008073ffffffffffffffffffffffffffffffffffffffff168273ffffffffffffffffffffffffffffffffffffffff1614156200057557600080fd5b8260000160008373ffffffffffffffffffffffffffffffffffffffff1673ffffffffffffffffffffffffffffffffffffffff16815260200190815260200160002060009054906101000a900460ff16905092915050565b828054600181600116156101000203166002900490600052602060002090601f016020900481019282601f106200060f57805160ff191683800117855562000640565b8280016001018555821562000640579182015b828111156200063f57825182559160200191906001019062000622565b5b5090506200064f919062000653565b5090565b6200067891905b80821115620006745760008160009055506001016200065a565b5090565b90565b6151c6806200068b6000396000f3fe60806040523480156200001157600080fd5b5060043610620001965760003560e01c8063715018a611620000f3578063b9b9161411620000a5578063efb03a1a116200007b578063efb03a1a146200074d578063f2fde38b14620007be578063fabab4d61462000805578063fb7ad2e314620009395762000196565b8063b9b91614146200060a578063c063c3c7146200067d578063ec9da59e14620007065762000196565b8063715018a6146200041257806382dc1ec4146200041e5780638456cb5914620004655780638da5cb5b14620004715780638f32d59b14620004bd578063b3e444a714620004e15762000196565b8063494fd749116200014d578063494fd74914620003625780635460303014620003825780635c975abb14620003a25780636012cfbf14620003c65780636a66d3a114620003e65780636ef8d66d14620004065762000196565b80630409efcd146200019b5780630aac5dfd14620001d65780632482855714620001f65780633f4ba83a146200025957806346fbf68e146200026557806348abcf8314620002c4575b600080fd5b620001d460048036036040811015620001b357600080fd5b81019080803590602001909291908035906020019092919050505062000994565b005b620001e062000cdc565b6040518082815260200191505060405180910390f35b6200020062000cec565b6040518080602001828103825283818151815260200191508051906020019060200280838360005b838110156200024557808201518184015260208101905062000228565b505050509050019250505060405180910390f35b6200026362000e3d565b005b620002aa600480360360208110156200027d57600080fd5b81019080803573ffffffffffffffffffffffffffffffffffffffff16906020019092919050505062000eec565b604051808215151515815260200191505060405180910390f35b6200030960048036036020811015620002dc57600080fd5b81019080803573ffffffffffffffffffffffffffffffffffffffff16906020019092919050505062000f0b565b6040518080602001828103825283818151815260200191508051906020019060200280838360005b838110156200034e57808201518184015260208101905062000331565b505050509050019250505060405180910390f35b6200036c62000fb8565b6040518082815260200191505060405180910390f35b6200038c62001136565b6040518082815260200191505060405180910390f35b620003ac62001149565b604051808215151515815260200191505060405180910390f35b620003d062001160565b6040518082815260200191505060405180910390f35b620003f06200116a565b6040518082815260200191505060405180910390f35b6200041062001174565b005b6200041c62001181565b005b62000463600480360360208110156200043657600080fd5b81019080803573ffffffffffffffffffffffffffffffffffffffff16906020019092919050505062001254565b005b6200046f62001277565b005b6200047b62001326565b604051808273ffffffffffffffffffffffffffffffffffffffff1673ffffffffffffffffffffffffffffffffffffffff16815260200191505060405180910390f35b620004c76200134f565b604051808215151515815260200191505060405180910390f35b6200051060048036036020811015620004f957600080fd5b8101908080359060200190929190505050620013a6565b604051808673ffffffffffffffffffffffffffffffffffffffff1673ffffffffffffffffffffffffffffffffffffffff1681526020018573ffffffffffffffffffffffffffffffffffffffff1673ffffffffffffffffffffffffffffffffffffffff168152602001841515151581526020018315151515815260200180602001828103825283818151815260200191508051906020019080838360005b83811015620005ca578082015181840152602081019050620005ad565b50505050905090810190601f168015620005f85780820380516001836020036101000a031916815260200191505b50965050505050505060405180910390f35b62000663600480360360608110156200062257600080fd5b81019080803573ffffffffffffffffffffffffffffffffffffffff16906020019092919080359060200190929190803590602001909291905050506200156d565b604051808215151515815260200191505060405180910390f35b62000704600480360360408110156200069557600080fd5b810190808035906020019092919080359060200190640100000000811115620006bd57600080fd5b820183602082011115620006d057600080fd5b80359060200191846001830284011164010000000083111715620006f357600080fd5b9091929391929390505050620017d4565b005b6200074b600480360360208110156200071e57600080fd5b81019080803573ffffffffffffffffffffffffffffffffffffffff169060200190929190505050620018fe565b005b6200077c600480360360208110156200076557600080fd5b810190808035906020019092919050505062001956565b604051808273ffffffffffffffffffffffffffffffffffffffff1673ffffffffffffffffffffffffffffffffffffffff16815260200191505060405180910390f35b6200080360048036036020811015620007d657600080fd5b81019080803573ffffffffffffffffffffffffffffffffffffffff1690602001909291905050506200199f565b005b6200093760048036036101208110156200081e57600080fd5b81019080803573ffffffffffffffffffffffffffffffffffffffff169060200190929190803590602001906401000000008111156200085c57600080fd5b8201836020820111156200086f57600080fd5b803590602001918460018302840111640100000000831117156200089257600080fd5b909192939192939080359060200190929190803590602001909291908035906020019092919080359060200190929190803590602001909291908035906020019092919080359060200190640100000000811115620008f057600080fd5b8201836020820111156200090357600080fd5b803590602001918460018302840111640100000000831117156200092657600080fd5b9091929391929390505050620019c1565b005b6200097e600480360360208110156200095157600080fd5b81019080803573ffffffffffffffffffffffffffffffffffffffff16906020019092919050505062001efe565b6040518082815260200191505060405180910390f35b803373ffffffffffffffffffffffffffffffffffffffff1660078281548110620009ba57fe5b906000526020600020906003020160000160009054906101000a900473ffffffffffffffffffffffffffffffffffffffff1673ffffffffffffffffffffffffffffffffffffffff161462000a0d57600080fd5b60006007838154811062000a1d57fe5b906000526020600020906003020190508060010160009054906101000a900473ffffffffffffffffffffffffffffffffffffffff1673ffffffffffffffffffffffffffffffffffffffff1663ad7ee8326040518163ffffffff1660e01b815260040160206040518083038186803b15801562000a9857600080fd5b505afa15801562000aad573d6000803e3d6000fd5b505050506040513d602081101562000ac457600080fd5b810190808051906020019092919050505062000af2670de0b6b3a76400008662001f4790919063ffffffff16565b101562000afe57600080fd5b600260009054906101000a900473ffffffffffffffffffffffffffffffffffffffff1673ffffffffffffffffffffffffffffffffffffffff166323b872dd338360010160009054906101000a900473ffffffffffffffffffffffffffffffffffffffff16876040518463ffffffff1660e01b8152600401808473ffffffffffffffffffffffffffffffffffffffff1673ffffffffffffffffffffffffffffffffffffffff1681526020018373ffffffffffffffffffffffffffffffffffffffff1673ffffffffffffffffffffffffffffffffffffffff1681526020018281526020019350505050602060405180830381600087803b15801562000c0057600080fd5b505af115801562000c15573d6000803e3d6000fd5b505050506040513d602081101562000c2c57600080fd5b810190808051906020019092919050505062000c4757600080fd5b60018160010160156101000a81548160ff0219169083151502179055508060010160009054906101000a900473ffffffffffffffffffffffffffffffffffffffff1673ffffffffffffffffffffffffffffffffffffffff167f9490153ccd10164d959040e4e2c23d989eea12bb8f5a5560e983e70ffa51d8c9846040518082815260200191505060405180910390a250505050565b6000600160078054905003905090565b60606000600960003373ffffffffffffffffffffffffffffffffffffffff1673ffffffffffffffffffffffffffffffffffffffff16815260200190815260200160002080549050141562000da8576040517f08c379a00000000000000000000000000000000000000000000000000000000081526004018080602001828103825260198152602001807f6d757374206861766520616e206163746976652061737365740000000000000081525060200191505060405180910390fd5b600960003373ffffffffffffffffffffffffffffffffffffffff1673ffffffffffffffffffffffffffffffffffffffff16815260200190815260200160002080548060200260200160405190810160405280929190818152602001828054801562000e3357602002820191906000526020600020905b81548152602001906001019080831162000e1e575b5050505050905090565b62000e483362000eec565b62000e5257600080fd5b600160009054906101000a900460ff1662000e6c57600080fd5b6000600160006101000a81548160ff0219169083151502179055507f5db9ee0a495bf2e6ff9c91a7834c1ba4fdd244a5e8aa4e537bd38aeae4b073aa33604051808273ffffffffffffffffffffffffffffffffffffffff1673ffffffffffffffffffffffffffffffffffffffff16815260200191505060405180910390a1565b600062000f0482600062001f6f90919063ffffffff16565b9050919050565b606062000f176200134f565b62000f2157600080fd5b600960008373ffffffffffffffffffffffffffffffffffffffff1673ffffffffffffffffffffffffffffffffffffffff16815260200190815260200160002080548060200260200160405190810160405280929190818152602001828054801562000fac57602002820191906000526020600020905b81548152602001906001019080831162000f97575b50505050509050919050565b6000806000600190505b60016007805490500381116200112e57600073ffffffffffffffffffffffffffffffffffffffff166007828154811062000ff857fe5b906000526020600020906003020160010160009054906101000a900473ffffffffffffffffffffffffffffffffffffffff1673ffffffffffffffffffffffffffffffffffffffff161462001120576200111d600782815481106200105857fe5b906000526020600020906003020160010160009054906101000a900473ffffffffffffffffffffffffffffffffffffffff1673ffffffffffffffffffffffffffffffffffffffff16630f76c1146040518163ffffffff1660e01b815260040160206040518083038186803b158015620010d057600080fd5b505afa158015620010e5573d6000803e3d6000fd5b505050506040513d6020811015620010fc57600080fd5b8101908080519060200190929190505050836200200290919063ffffffff16565b91505b808060010191505062000fc2565b508091505090565b600062001144600462002022565b905090565b6000600160009054906101000a900460ff16905090565b6000600654905090565b6000600554905090565b6200117f3362002053565b565b6200118b6200134f565b6200119557600080fd5b600073ffffffffffffffffffffffffffffffffffffffff166001809054906101000a900473ffffffffffffffffffffffffffffffffffffffff1673ffffffffffffffffffffffffffffffffffffffff167f8be0079c531659141344cd1fd0a4f28419497f9722a3daafe3b4186f6b6457e060405160405180910390a360006001806101000a81548173ffffffffffffffffffffffffffffffffffffffff021916908373ffffffffffffffffffffffffffffffffffffffff160217905550565b6200125f3362000eec565b6200126957600080fd5b6200127481620020af565b50565b620012823362000eec565b6200128c57600080fd5b600160009054906101000a900460ff1615620012a757600080fd5b60018060006101000a81548160ff0219169083151502179055507f62e78cea01bee320cd4e420270b5ea74000d11b0c9f74754ebdbfc544b05a25833604051808273ffffffffffffffffffffffffffffffffffffffff1673ffffffffffffffffffffffffffffffffffffffff16815260200191505060405180910390a1565b60006001809054906101000a900473ffffffffffffffffffffffffffffffffffffffff16905090565b60006001809054906101000a900473ffffffffffffffffffffffffffffffffffffffff1673ffffffffffffffffffffffffffffffffffffffff163373ffffffffffffffffffffffffffffffffffffffff1614905090565b600080600080606085600073ffffffffffffffffffffffffffffffffffffffff1660078281548110620013d557fe5b906000526020600020906003020160000160009054906101000a900473ffffffffffffffffffffffffffffffffffffffff1673ffffffffffffffffffffffffffffffffffffffff1614156200142957600080fd5b6000600788815481106200143957fe5b906000526020600020906003020190508060000160009054906101000a900473ffffffffffffffffffffffffffffffffffffffff1696508060010160009054906101000a900473ffffffffffffffffffffffffffffffffffffffff1695508060010160149054906101000a900460ff1694508060010160159054906101000a900460ff169350806002018054600181600116156101000203166002900480601f0160208091040260200160405190810160405280929190818152602001828054600181600116156101000203166002900480156200155b5780601f106200152f576101008083540402835291602001916200155b565b820191906000526020600020905b8154815290600101906020018083116200153d57829003601f168201915b50505050509250505091939590929450565b6000600360009054906101000a900473ffffffffffffffffffffffffffffffffffffffff1673ffffffffffffffffffffffffffffffffffffffff163373ffffffffffffffffffffffffffffffffffffffff1614620015ca57600080fd5b6000600a60008673ffffffffffffffffffffffffffffffffffffffff1673ffffffffffffffffffffffffffffffffffffffff16815260200190815260200160002054905060008414156200178257600881815481106200162657fe5b9060005260206000209060020201600080820160006101000a81549073ffffffffffffffffffffffffffffffffffffffff0219169055600182016000905550506200167e60016005546200210b90919063ffffffff16565b600581905550600654831480156200169857506000600554115b15620016b457620016a86200212c565b600681905550620016ca565b60006005541415620016c95760006006819055505b5b600160078281548110620016da57fe5b906000526020600020906003020160010160146101000a81548160ff0219169083151502179055508473ffffffffffffffffffffffffffffffffffffffff167f4c2aec8ccd8aca85e76bb29f46058b5502d00428de81698e2bec847fd9a2c6c733604051808273ffffffffffffffffffffffffffffffffffffffff1673ffffffffffffffffffffffffffffffffffffffff16815260200191505060405180910390a2620017c8565b83600882815481106200179157fe5b906000526020600020906002020160010181905550600654841080620017b957506000600654145b15620017c757836006819055505b5b60019150509392505050565b823373ffffffffffffffffffffffffffffffffffffffff1660078281548110620017fa57fe5b906000526020600020906003020160000160009054906101000a900473ffffffffffffffffffffffffffffffffffffffff1673ffffffffffffffffffffffffffffffffffffffff16146200184d57600080fd5b600073ffffffffffffffffffffffffffffffffffffffff16600785815481106200187357fe5b906000526020600020906003020160000160009054906101000a900473ffffffffffffffffffffffffffffffffffffffff1673ffffffffffffffffffffffffffffffffffffffff161415620018c757600080fd5b828260078681548110620018d757fe5b90600052602060002090600302016002019190620018f792919062002610565b5050505050565b620019086200134f565b6200191257600080fd5b80600360006101000a81548173ffffffffffffffffffffffffffffffffffffffff021916908373ffffffffffffffffffffffffffffffffffffffff16021790555050565b6000600882815481106200196657fe5b906000526020600020906002020160000160009054906101000a900473ffffffffffffffffffffffffffffffffffffffff169050919050565b620019a96200134f565b620019b357600080fd5b620019be8162002277565b50565b60008b600260009054906101000a900473ffffffffffffffffffffffffffffffffffffffff168c8c8c8c8c8c8c8c604051620019fd9062002697565b808b73ffffffffffffffffffffffffffffffffffffffff1673ffffffffffffffffffffffffffffffffffffffff1681526020018a73ffffffffffffffffffffffffffffffffffffffff1673ffffffffffffffffffffffffffffffffffffffff1681526020018060200188815260200187815260200186815260200185815260200184815260200183815260200182810382528a8a82818152602001925080828437600081840152601f19601f8201169050808301925050509b505050505050505050505050604051809103906000f08015801562001adf573d6000803e3d6000fd5b5090508073ffffffffffffffffffffffffffffffffffffffff1663983b2d56600360009054906101000a900473ffffffffffffffffffffffffffffffffffffffff166040518263ffffffff1660e01b8152600401808273ffffffffffffffffffffffffffffffffffffffff1673ffffffffffffffffffffffffffffffffffffffff168152602001915050600060405180830381600087803b15801562001b8457600080fd5b505af115801562001b99573d6000803e3d6000fd5b5050505062001ba9818962002370565b62001bb3620026a5565b6040518060a001604052808e73ffffffffffffffffffffffffffffffffffffffff1681526020018373ffffffffffffffffffffffffffffffffffffffff16815260200160001515815260200160001515815260200185858080601f016020809104026020016040519081016040528093929190818152602001838380828437600081840152601f19601f820116905080830192505050505050508152509050600060016007839080600181540180825580915050906001820390600052602060002090600302016000909192909190915060008201518160000160006101000a81548173ffffffffffffffffffffffffffffffffffffffff021916908373ffffffffffffffffffffffffffffffffffffffff16021790555060208201518160010160006101000a81548173ffffffffffffffffffffffffffffffffffffffff021916908373ffffffffffffffffffffffffffffffffffffffff16021790555060408201518160010160146101000a81548160ff02191690831515021790555060608201518160010160156101000a81548160ff021916908315150217905550608082015181600201908051906020019062001d7092919062002704565b505050039050600960008f73ffffffffffffffffffffffffffffffffffffffff1673ffffffffffffffffffffffffffffffffffffffff16815260200190815260200160002081908060018154018082558091505090600182039060005260206000200160009091929091909150555080600a60008573ffffffffffffffffffffffffffffffffffffffff1673ffffffffffffffffffffffffffffffffffffffff1681526020019081526020016000208190555060048890806001815401808255809150509060018203906000526020600020016000909192909190915055507ffa059abe2916f4d57f1c7b4f97b9258577651dd2b526a041e78635f804d5d763838f83604051808473ffffffffffffffffffffffffffffffffffffffff1673ffffffffffffffffffffffffffffffffffffffff1681526020018373ffffffffffffffffffffffffffffffffffffffff1673ffffffffffffffffffffffffffffffffffffffff168152602001828152602001935050505060405180910390a15050505050505050505050505050565b6000600a60008373ffffffffffffffffffffffffffffffffffffffff1673ffffffffffffffffffffffffffffffffffffffff168152602001908152602001600020549050919050565b600080821162001f5657600080fd5b600082848162001f6257fe5b0490508091505092915050565b60008073ffffffffffffffffffffffffffffffffffffffff168273ffffffffffffffffffffffffffffffffffffffff16141562001fab57600080fd5b8260000160008373ffffffffffffffffffffffffffffffffffffffff1673ffffffffffffffffffffffffffffffffffffffff16815260200190815260200160002060009054906101000a900460ff16905092915050565b6000808284019050838110156200201857600080fd5b8091505092915050565b60008160605260005b82548110156200204d578181602060602001540191506001810190506200202b565b50919050565b620020698160006200245f90919063ffffffff16565b8073ffffffffffffffffffffffffffffffffffffffff167fcd265ebaf09df2871cc7bd4133404a235ba12eff2041bb89d9c714a2621c7c7e60405160405180910390a250565b620020c58160006200250e90919063ffffffff16565b8073ffffffffffffffffffffffffffffffffffffffff167f6719d08c1888103bea251a4ed56406bd0c3e69723c8a1686e017e7bbe159b6f860405160405180910390a250565b6000828211156200211b57600080fd5b600082840390508091505092915050565b60006060600554604051908082528060200260200182016040528015620021625781602001602082028038833980820191505090505b50905060008090506000600190505b60016008805490500381116200225557600073ffffffffffffffffffffffffffffffffffffffff1660088281548110620021a757fe5b906000526020600020906002020160000160009054906101000a900473ffffffffffffffffffffffffffffffffffffffff1673ffffffffffffffffffffffffffffffffffffffff16146200224757600881815481106200220357fe5b9060005260206000209060020201600101548383815181106200222257fe5b602002602001018181525050620022446001836200200290919063ffffffff16565b91505b808060010191505062002171565b5080600554146200226557600080fd5b6200227082620025be565b9250505090565b600073ffffffffffffffffffffffffffffffffffffffff168173ffffffffffffffffffffffffffffffffffffffff161415620022b257600080fd5b8073ffffffffffffffffffffffffffffffffffffffff166001809054906101000a900473ffffffffffffffffffffffffffffffffffffffff1673ffffffffffffffffffffffffffffffffffffffff167f8be0079c531659141344cd1fd0a4f28419497f9722a3daafe3b4186f6b6457e060405160405180910390a3806001806101000a81548173ffffffffffffffffffffffffffffffffffffffff021916908373ffffffffffffffffffffffffffffffffffffffff16021790555050565b600860405180604001604052808473ffffffffffffffffffffffffffffffffffffffff168152602001838152509080600181540180825580915050906001820390600052602060002090600202016000909192909190915060008201518160000160006101000a81548173ffffffffffffffffffffffffffffffffffffffff021916908373ffffffffffffffffffffffffffffffffffffffff16021790555060208201518160010155505050600060065414806200242f575060065481105b156200243d57806006819055505b6200245560016005546200200290919063ffffffff16565b6005819055505050565b600073ffffffffffffffffffffffffffffffffffffffff168173ffffffffffffffffffffffffffffffffffffffff1614156200249a57600080fd5b620024a6828262001f6f565b620024b057600080fd5b60008260000160008373ffffffffffffffffffffffffffffffffffffffff1673ffffffffffffffffffffffffffffffffffffffff16815260200190815260200160002060006101000a81548160ff0219169083151502179055505050565b600073ffffffffffffffffffffffffffffffffffffffff168173ffffffffffffffffffffffffffffffffffffffff1614156200254957600080fd5b62002555828262001f6f565b156200256057600080fd5b60018260000160008373ffffffffffffffffffffffffffffffffffffffff1673ffffffffffffffffffffffffffffffffffffffff16815260200190815260200160002060006101000a81548160ff0219169083151502179055505050565b600081606052602060602054905060005b82548110156200260a578181602060602001541160008114620025f257620025fd565b816020606020015492505b50600181019050620025cf565b50919050565b828054600181600116156101000203166002900490600052602060002090601f016020900481019282601f106200265357803560ff191683800117855562002684565b8280016001018555821562002684579182015b828111156200268357823582559160200191906001019062002666565b5b5090506200269391906200278b565b5090565b6129e780620027b483390190565b6040518060a00160405280600073ffffffffffffffffffffffffffffffffffffffff168152602001600073ffffffffffffffffffffffffffffffffffffffff168152602001600015158152602001600015158152602001606081525090565b828054600181600116156101000203166002900490600052602060002090601f016020900481019282601f106200274757805160ff191683800117855562002778565b8280016001018555821562002778579182015b82811115620027775782518255916020019190600101906200275a565b5b5090506200278791906200278b565b5090565b620027b091905b80821115620027ac57600081600090555060010162002792565b5090565b9056fe60806040526012600655600c60075561016d600855620151806009553480156200002857600080fd5b50604051620029e7380380620029e783398101806040526101208110156200004f57600080fd5b81019080805190602001909291908051906020019092919080516401000000008111156200007c57600080fd5b828101905060208101848111156200009357600080fd5b8151856001820283011164010000000082111715620000b157600080fd5b5050929190602001805190602001909291908051906020019092919080519060200190929190805190602001909291908051906020019092919080519060200190929190505050846200010a33620002b260201b60201c565b600081116200011857600080fd5b806004819055505033600560006101000a81548173ffffffffffffffffffffffffffffffffffffffff021916908373ffffffffffffffffffffffffffffffffffffffff160217905550600560009054906101000a900473ffffffffffffffffffffffffffffffffffffffff1673ffffffffffffffffffffffffffffffffffffffff16600073ffffffffffffffffffffffffffffffffffffffff167f8be0079c531659141344cd1fd0a4f28419497f9722a3daafe3b4186f6b6457e060405160405180910390a386600b9080519060200190620001f69291906200045c565b5085600c8190555083600d8190555082600f8190555042600e81905550816010819055508060118190555087601260006101000a81548173ffffffffffffffffffffffffffffffffffffffff021916908373ffffffffffffffffffffffffffffffffffffffff16021790555088600a60006101000a81548173ffffffffffffffffffffffffffffffffffffffff021916908373ffffffffffffffffffffffffffffffffffffffff1602179055505050505050505050506200050b565b620002cd8160036200031360201b620022b91790919060201c565b8073ffffffffffffffffffffffffffffffffffffffff167f6ae172837ea30b801fbfcdd4108aa1d5bf8ff775444fd70256b44e6bf3dfc3f660405160405180910390a250565b600073ffffffffffffffffffffffffffffffffffffffff168173ffffffffffffffffffffffffffffffffffffffff1614156200034e57600080fd5b620003608282620003c960201b60201c565b156200036b57600080fd5b60018260000160008373ffffffffffffffffffffffffffffffffffffffff1673ffffffffffffffffffffffffffffffffffffffff16815260200190815260200160002060006101000a81548160ff0219169083151502179055505050565b60008073ffffffffffffffffffffffffffffffffffffffff168273ffffffffffffffffffffffffffffffffffffffff1614156200040557600080fd5b8260000160008373ffffffffffffffffffffffffffffffffffffffff1673ffffffffffffffffffffffffffffffffffffffff16815260200190815260200160002060009054906101000a900460ff16905092915050565b828054600181600116156101000203166002900490600052602060002090601f016020900481019282601f106200049f57805160ff1916838001178555620004d0565b82800160010185558215620004d0579182015b82811115620004cf578251825591602001919060010190620004b2565b5b509050620004df9190620004e3565b5090565b6200050891905b8082111562000504576000816000905550600101620004ea565b5090565b90565b6124cc806200051b6000396000f3fe6080604052600436106101e35760003560e01c80638da5cb5b11610102578063ad7ee83211610095578063dd62ed3e11610064578063dd62ed3e14610a42578063e0b9d9b014610ac7578063e2608c9e14610af2578063f2fde38b14610b1d576101e3565b8063ad7ee83214610996578063af214cf3146109c1578063b8613ae8146109ec578063cf09e0d014610a17576101e3565b80639ac9940f116100d15780639ac9940f146107f0578063a457c2d714610847578063a9059cbb146108ba578063aa271e1a1461092d576101e3565b80638da5cb5b146107025780638f32d59b14610759578063983b2d561461078857806398650275146107d9576101e3565b8063395093511161017a57806370a082311161014957806370a0823114610600578063715018a61461066557806379cc67901461067c578063821f1219146106d7576101e3565b806339509351146104b457806340c10f191461052757806342966c681461059a5780635da139ab146105d5576101e3565b806323b872dd116101b657806323b872dd146103b4578063313ce5671461044757806334f2114a14610472578063355274ea14610489576101e3565b806306fdde031461025b578063095ea7b3146102eb5780630f76c1141461035e57806318160ddd14610389575b60003414610259576040517f08c379a00000000000000000000000000000000000000000000000000000000081526004018080602001828103825260118152602001807f6e6f7420616363657074696e672045544800000000000000000000000000000081525060200191505060405180910390fd5b005b34801561026757600080fd5b50610270610b6e565b6040518080602001828103825283818151815260200191508051906020019080838360005b838110156102b0578082015181840152602081019050610295565b50505050905090810190601f1680156102dd5780820380516001836020036101000a031916815260200191505b509250505060405180910390f35b3480156102f757600080fd5b506103446004803603604081101561030e57600080fd5b81019080803573ffffffffffffffffffffffffffffffffffffffff16906020019092919080359060200190929190505050610c0c565b604051808215151515815260200191505060405180910390f35b34801561036a57600080fd5b50610373610c23565b6040518082815260200191505060405180910390f35b34801561039557600080fd5b5061039e610c7d565b6040518082815260200191505060405180910390f35b3480156103c057600080fd5b5061042d600480360360608110156103d757600080fd5b81019080803573ffffffffffffffffffffffffffffffffffffffff169060200190929190803573ffffffffffffffffffffffffffffffffffffffff16906020019092919080359060200190929190505050610c87565b604051808215151515815260200191505060405180910390f35b34801561045357600080fd5b5061045c610d38565b6040518082815260200191505060405180910390f35b34801561047e57600080fd5b50610487610d3e565b005b34801561049557600080fd5b5061049e6112dc565b6040518082815260200191505060405180910390f35b3480156104c057600080fd5b5061050d600480360360408110156104d757600080fd5b81019080803573ffffffffffffffffffffffffffffffffffffffff169060200190929190803590602001909291905050506112e6565b604051808215151515815260200191505060405180910390f35b34801561053357600080fd5b506105806004803603604081101561054a57600080fd5b81019080803573ffffffffffffffffffffffffffffffffffffffff1690602001909291908035906020019092919050505061138b565b604051808215151515815260200191505060405180910390f35b3480156105a657600080fd5b506105d3600480360360208110156105bd57600080fd5b81019080803590602001909291905050506113b3565b005b3480156105e157600080fd5b506105ea6113c0565b6040518082815260200191505060405180910390f35b34801561060c57600080fd5b5061064f6004803603602081101561062357600080fd5b81019080803573ffffffffffffffffffffffffffffffffffffffff1690602001909291905050506113c6565b6040518082815260200191505060405180910390f35b34801561067157600080fd5b5061067a61140e565b005b34801561068857600080fd5b506106d56004803603604081101561069f57600080fd5b81019080803573ffffffffffffffffffffffffffffffffffffffff169060200190929190803590602001909291905050506114e0565b005b3480156106e357600080fd5b506106ec6114ee565b6040518082815260200191505060405180910390f35b34801561070e57600080fd5b506107176114f8565b604051808273ffffffffffffffffffffffffffffffffffffffff1673ffffffffffffffffffffffffffffffffffffffff16815260200191505060405180910390f35b34801561076557600080fd5b5061076e611522565b604051808215151515815260200191505060405180910390f35b34801561079457600080fd5b506107d7600480360360208110156107ab57600080fd5b81019080803573ffffffffffffffffffffffffffffffffffffffff16906020019092919050505061157a565b005b3480156107e557600080fd5b506107ee611598565b005b3480156107fc57600080fd5b506108056115a3565b604051808273ffffffffffffffffffffffffffffffffffffffff1673ffffffffffffffffffffffffffffffffffffffff16815260200191505060405180910390f35b34801561085357600080fd5b506108a06004803603604081101561086a57600080fd5b81019080803573ffffffffffffffffffffffffffffffffffffffff169060200190929190803590602001909291905050506115c9565b604051808215151515815260200191505060405180910390f35b3480156108c657600080fd5b50610913600480360360408110156108dd57600080fd5b81019080803573ffffffffffffffffffffffffffffffffffffffff1690602001909291908035906020019092919050505061166e565b604051808215151515815260200191505060405180910390f35b34801561093957600080fd5b5061097c6004803603602081101561095057600080fd5b81019080803573ffffffffffffffffffffffffffffffffffffffff169060200190929190505050611685565b604051808215151515815260200191505060405180910390f35b3480156109a257600080fd5b506109ab6116a2565b6040518082815260200191505060405180910390f35b3480156109cd57600080fd5b506109d66116ac565b6040518082815260200191505060405180910390f35b3480156109f857600080fd5b50610a0161175f565b6040518082815260200191505060405180910390f35b348015610a2357600080fd5b50610a2c611769565b6040518082815260200191505060405180910390f35b348015610a4e57600080fd5b50610ab160048036036040811015610a6557600080fd5b81019080803573ffffffffffffffffffffffffffffffffffffffff169060200190929190803573ffffffffffffffffffffffffffffffffffffffff16906020019092919050505061176f565b6040518082815260200191505060405180910390f35b348015610ad357600080fd5b50610adc6117f6565b6040518082815260200191505060405180910390f35b348015610afe57600080fd5b50610b076117fc565b6040518082815260200191505060405180910390f35b348015610b2957600080fd5b50610b6c60048036036020811015610b4057600080fd5b81019080803573ffffffffffffffffffffffffffffffffffffffff169060200190929190505050611897565b005b600b8054600181600116156101000203166002900480601f016020809104026020016040519081016040528092919081815260200182805460018160011615610100020316600290048015610c045780601f10610bd957610100808354040283529160200191610c04565b820191906000526020600020905b815481529060010190602001808311610be757829003601f168201915b505050505081565b6000610c193384846118b4565b6001905092915050565b600080610c36610c316112dc565b611a13565b9050610c77610c66600e544203610c5860115485611a5e90919063ffffffff16565b611a5e90919063ffffffff16565b600c54611a9890919063ffffffff16565b91505090565b6000600254905090565b6000610c94848484611ab7565b610d2d8433610d2885600160008a73ffffffffffffffffffffffffffffffffffffffff1673ffffffffffffffffffffffffffffffffffffffff16815260200190815260200160002060003373ffffffffffffffffffffffffffffffffffffffff1673ffffffffffffffffffffffffffffffffffffffff16815260200190815260200160002054611c8190919063ffffffff16565b6118b4565b600190509392505050565b60065481565b6000610d49336113c6565b1415610da0576040517f08c379a000000000000000000000000000000000000000000000000000000000815260040180806020018281038252602c815260200180612475602c913960400191505060405180910390fd5b6000610daa6117fc565b90506000601260009054906101000a900473ffffffffffffffffffffffffffffffffffffffff1673ffffffffffffffffffffffffffffffffffffffff166370a08231306040518263ffffffff1660e01b8152600401808273ffffffffffffffffffffffffffffffffffffffff1673ffffffffffffffffffffffffffffffffffffffff16815260200191505060206040518083038186803b158015610e4d57600080fd5b505afa158015610e61573d6000803e3d6000fd5b505050506040513d6020811015610e7757600080fd5b8101908080519060200190929190505050905081811015610ee3576040517f08c379a000000000000000000000000000000000000000000000000000000000815260040180806020018281038252603781526020018061243e6037913960400191505060405180910390fd5b601260009054906101000a900473ffffffffffffffffffffffffffffffffffffffff1673ffffffffffffffffffffffffffffffffffffffff1663a9059cbb33846040518363ffffffff1660e01b8152600401808373ffffffffffffffffffffffffffffffffffffffff1673ffffffffffffffffffffffffffffffffffffffff16815260200182815260200192505050602060405180830381600087803b158015610f8c57600080fd5b505af1158015610fa0573d6000803e3d6000fd5b505050506040513d6020811015610fb657600080fd5b8101908080519060200190929190505050611039576040517f08c379a00000000000000000000000000000000000000000000000000000000081526004018080602001828103825260178152602001807f6661696c6564207472616e7366657272696e672044414900000000000000000081525060200191505060405180910390fd5b61104a611045336113c6565b6113b3565b6000611054610c7d565b14156112d8576000601260009054906101000a900473ffffffffffffffffffffffffffffffffffffffff1673ffffffffffffffffffffffffffffffffffffffff166370a08231306040518263ffffffff1660e01b8152600401808273ffffffffffffffffffffffffffffffffffffffff1673ffffffffffffffffffffffffffffffffffffffff16815260200191505060206040518083038186803b1580156110fb57600080fd5b505afa15801561110f573d6000803e3d6000fd5b505050506040513d602081101561112557600080fd5b81019080805190602001909291905050509050600081111561129d57601260009054906101000a900473ffffffffffffffffffffffffffffffffffffffff1673ffffffffffffffffffffffffffffffffffffffff1663a9059cbb600a60009054906101000a900473ffffffffffffffffffffffffffffffffffffffff16836040518363ffffffff1660e01b8152600401808373ffffffffffffffffffffffffffffffffffffffff1673ffffffffffffffffffffffffffffffffffffffff16815260200182815260200192505050602060405180830381600087803b15801561120c57600080fd5b505af1158015611220573d6000803e3d6000fd5b505050506040513d602081101561123657600080fd5b810190808051906020019092919050505061129c576040517f08c379a000000000000000000000000000000000000000000000000000000000815260040180806020018281038252602d815260200180612411602d913960400191505060405180910390fd5b5b600a60009054906101000a900473ffffffffffffffffffffffffffffffffffffffff1673ffffffffffffffffffffffffffffffffffffffff16ff5b5050565b6000600454905090565b6000611381338461137c85600160003373ffffffffffffffffffffffffffffffffffffffff1673ffffffffffffffffffffffffffffffffffffffff16815260200190815260200160002060008973ffffffffffffffffffffffffffffffffffffffff1673ffffffffffffffffffffffffffffffffffffffff16815260200190815260200160002054611a9890919063ffffffff16565b6118b4565b6001905092915050565b600061139633611685565b61139f57600080fd5b6113a98383611ca1565b6001905092915050565b6113bd3382611cd7565b50565b600d5481565b60008060008373ffffffffffffffffffffffffffffffffffffffff1673ffffffffffffffffffffffffffffffffffffffff168152602001908152602001600020549050919050565b611416611522565b61141f57600080fd5b600073ffffffffffffffffffffffffffffffffffffffff16600560009054906101000a900473ffffffffffffffffffffffffffffffffffffffff1673ffffffffffffffffffffffffffffffffffffffff167f8be0079c531659141344cd1fd0a4f28419497f9722a3daafe3b4186f6b6457e060405160405180910390a36000600560006101000a81548173ffffffffffffffffffffffffffffffffffffffff021916908373ffffffffffffffffffffffffffffffffffffffff160217905550565b6114ea8282611e29565b5050565b6000601054905090565b6000600560009054906101000a900473ffffffffffffffffffffffffffffffffffffffff16905090565b6000600560009054906101000a900473ffffffffffffffffffffffffffffffffffffffff1673ffffffffffffffffffffffffffffffffffffffff163373ffffffffffffffffffffffffffffffffffffffff1614905090565b61158333611685565b61158c57600080fd5b61159581611ed0565b50565b6115a133611f2a565b565b600a60009054906101000a900473ffffffffffffffffffffffffffffffffffffffff1681565b6000611664338461165f85600160003373ffffffffffffffffffffffffffffffffffffffff1673ffffffffffffffffffffffffffffffffffffffff16815260200190815260200160002060008973ffffffffffffffffffffffffffffffffffffffff1673ffffffffffffffffffffffffffffffffffffffff16815260200190815260200160002054611c8190919063ffffffff16565b6118b4565b6001905092915050565b600061167b338484611ab7565b6001905092915050565b600061169b826003611f8490919063ffffffff16565b9050919050565b6000600f54905090565b6000806116b8336113c6565b141561170f576040517f08c379a000000000000000000000000000000000000000000000000000000000815260040180806020018281038252602c815260200180612475602c913960400191505060405180910390fd5b600061171a336113c6565b9050600061172782612016565b905060006117406007548361204790919063ffffffff16565b905061175760105482611a5e90919063ffffffff16565b935050505090565b6000601154905090565b600e5481565b6000600160008473ffffffffffffffffffffffffffffffffffffffff1673ffffffffffffffffffffffffffffffffffffffff16815260200190815260200160002060008373ffffffffffffffffffffffffffffffffffffffff1673ffffffffffffffffffffffffffffffffffffffff16815260200190815260200160002054905092915050565b600c5481565b600080611808336113c6565b141561185f576040517f08c379a000000000000000000000000000000000000000000000000000000000815260040180806020018281038252602c815260200180612475602c913960400191505060405180910390fd5b600061186a336113c6565b9050600061187782611a13565b9050611890600e54420382611a5e90919063ffffffff16565b9250505090565b61189f611522565b6118a857600080fd5b6118b18161206d565b50565b600073ffffffffffffffffffffffffffffffffffffffff168273ffffffffffffffffffffffffffffffffffffffff1614156118ee57600080fd5b600073ffffffffffffffffffffffffffffffffffffffff168373ffffffffffffffffffffffffffffffffffffffff16141561192857600080fd5b80600160008573ffffffffffffffffffffffffffffffffffffffff1673ffffffffffffffffffffffffffffffffffffffff16815260200190815260200160002060008473ffffffffffffffffffffffffffffffffffffffff1673ffffffffffffffffffffffffffffffffffffffff168152602001908152602001600020819055508173ffffffffffffffffffffffffffffffffffffffff168373ffffffffffffffffffffffffffffffffffffffff167f8c5be1e5ebec7d5bd14f71427d1e84f3dd0314c0f7b2291e5b200ac8c7c3b925836040518082815260200191505060405180910390a3505050565b600080611a1f83612016565b90506000611a386008548361204790919063ffffffff16565b90506000611a516009548361204790919063ffffffff16565b9050809350505050919050565b600080831415611a715760009050611a92565b6000828402905082848281611a8257fe5b0414611a8d57600080fd5b809150505b92915050565b600080828401905083811015611aad57600080fd5b8091505092915050565b600073ffffffffffffffffffffffffffffffffffffffff168273ffffffffffffffffffffffffffffffffffffffff161415611af157600080fd5b611b42816000808673ffffffffffffffffffffffffffffffffffffffff1673ffffffffffffffffffffffffffffffffffffffff16815260200190815260200160002054611c8190919063ffffffff16565b6000808573ffffffffffffffffffffffffffffffffffffffff1673ffffffffffffffffffffffffffffffffffffffff16815260200190815260200160002081905550611bd5816000808573ffffffffffffffffffffffffffffffffffffffff1673ffffffffffffffffffffffffffffffffffffffff16815260200190815260200160002054611a9890919063ffffffff16565b6000808473ffffffffffffffffffffffffffffffffffffffff1673ffffffffffffffffffffffffffffffffffffffff168152602001908152602001600020819055508173ffffffffffffffffffffffffffffffffffffffff168373ffffffffffffffffffffffffffffffffffffffff167fddf252ad1be2c89b69c2b068fc378daa952ba7f163c4a11628f55a4df523b3ef836040518082815260200191505060405180910390a3505050565b600082821115611c9057600080fd5b600082840390508091505092915050565b600454611cbe82611cb0610c7d565b611a9890919063ffffffff16565b1115611cc957600080fd5b611cd38282612167565b5050565b600073ffffffffffffffffffffffffffffffffffffffff168273ffffffffffffffffffffffffffffffffffffffff161415611d1157600080fd5b611d2681600254611c8190919063ffffffff16565b600281905550611d7d816000808573ffffffffffffffffffffffffffffffffffffffff1673ffffffffffffffffffffffffffffffffffffffff16815260200190815260200160002054611c8190919063ffffffff16565b6000808473ffffffffffffffffffffffffffffffffffffffff1673ffffffffffffffffffffffffffffffffffffffff16815260200190815260200160002081905550600073ffffffffffffffffffffffffffffffffffffffff168273ffffffffffffffffffffffffffffffffffffffff167fddf252ad1be2c89b69c2b068fc378daa952ba7f163c4a11628f55a4df523b3ef836040518082815260200191505060405180910390a35050565b611e338282611cd7565b611ecc8233611ec784600160008873ffffffffffffffffffffffffffffffffffffffff1673ffffffffffffffffffffffffffffffffffffffff16815260200190815260200160002060003373ffffffffffffffffffffffffffffffffffffffff1673ffffffffffffffffffffffffffffffffffffffff16815260200190815260200160002054611c8190919063ffffffff16565b6118b4565b5050565b611ee48160036122b990919063ffffffff16565b8073ffffffffffffffffffffffffffffffffffffffff167f6ae172837ea30b801fbfcdd4108aa1d5bf8ff775444fd70256b44e6bf3dfc3f660405160405180910390a250565b611f3e81600361236590919063ffffffff16565b8073ffffffffffffffffffffffffffffffffffffffff167fe94479a9f7e1952cc78f2d6baab678adc1b772d936c6583def489e524cb6669260405160405180910390a250565b60008073ffffffffffffffffffffffffffffffffffffffff168273ffffffffffffffffffffffffffffffffffffffff161415611fbf57600080fd5b8260000160008373ffffffffffffffffffffffffffffffffffffffff1673ffffffffffffffffffffffffffffffffffffffff16815260200190815260200160002060009054906101000a900460ff16905092915050565b60006120406064612032600d5485611a5e90919063ffffffff16565b61204790919063ffffffff16565b9050919050565b600080821161205557600080fd5b600082848161206057fe5b0490508091505092915050565b600073ffffffffffffffffffffffffffffffffffffffff168173ffffffffffffffffffffffffffffffffffffffff1614156120a757600080fd5b8073ffffffffffffffffffffffffffffffffffffffff16600560009054906101000a900473ffffffffffffffffffffffffffffffffffffffff1673ffffffffffffffffffffffffffffffffffffffff167f8be0079c531659141344cd1fd0a4f28419497f9722a3daafe3b4186f6b6457e060405160405180910390a380600560006101000a81548173ffffffffffffffffffffffffffffffffffffffff021916908373ffffffffffffffffffffffffffffffffffffffff16021790555050565b600073ffffffffffffffffffffffffffffffffffffffff168273ffffffffffffffffffffffffffffffffffffffff1614156121a157600080fd5b6121b681600254611a9890919063ffffffff16565b60028190555061220d816000808573ffffffffffffffffffffffffffffffffffffffff1673ffffffffffffffffffffffffffffffffffffffff16815260200190815260200160002054611a9890919063ffffffff16565b6000808473ffffffffffffffffffffffffffffffffffffffff1673ffffffffffffffffffffffffffffffffffffffff168152602001908152602001600020819055508173ffffffffffffffffffffffffffffffffffffffff16600073ffffffffffffffffffffffffffffffffffffffff167fddf252ad1be2c89b69c2b068fc378daa952ba7f163c4a11628f55a4df523b3ef836040518082815260200191505060405180910390a35050565b600073ffffffffffffffffffffffffffffffffffffffff168173ffffffffffffffffffffffffffffffffffffffff1614156122f357600080fd5b6122fd8282611f84565b1561230757600080fd5b60018260000160008373ffffffffffffffffffffffffffffffffffffffff1673ffffffffffffffffffffffffffffffffffffffff16815260200190815260200160002060006101000a81548160ff0219169083151502179055505050565b600073ffffffffffffffffffffffffffffffffffffffff168173ffffffffffffffffffffffffffffffffffffffff16141561239f57600080fd5b6123a98282611f84565b6123b257600080fd5b60008260000160008373ffffffffffffffffffffffffffffffffffffffff1673ffffffffffffffffffffffffffffffffffffffff16815260200190815260200160002060006101000a81548160ff021916908315150217905550505056fe6661696c656420726566756e64696e672072656d61696e6465722044414920746f206173736574206f776e65726e6f7420656e6f7567682066756e6465642044414920746f6b656e73202d20636f6e7461637420746865206173736574206f776e6572216d757374206861766520616e2061637469766520696e766573746d656e7420696e2074686973206173736574a165627a7a7230582053f9e6ce2e359810d587a8848bc1382c26b62fe42e3890acc7957a09eec842560029a165627a7a72305820f111eb829dfa6e05e31817d85ca666054d34bf209d1575673bc1ac02d2b056f30029",
  "source": "pragma solidity ^0.5.5;\n\nimport \"./../node_modules/openzeppelin-solidity/contracts/ownership/Ownable.sol\";\nimport \"./../node_modules/openzeppelin-solidity/contracts/lifecycle/Pausable.sol\";\nimport \"./../node_modules/openzeppelin-solidity/contracts/math/SafeMath.sol\";\nimport \"./IAssetRegistry.sol\";\nimport \"./AssetToken.sol\";\n\n/**\n * @title AssetRegistry\n * This contract manages the functionality for assets - adding records, as well as reading data. It allows\n * users to add assets to the platform, and asset owners to fund their assets once sold.\n *\n * @author Carlos Beltran <imthatcarlos@gmail.com>\n */\ncontract AssetRegistry is IAssetRegistry, Pausable, Ownable {\n  using SafeMath for uint;\n\n  struct Asset {\n    address owner;\n    address payable tokenAddress;\n    bool filled;\n    bool funded;\n    string fileURL;\n  }\n\n  struct FillableAsset {\n    address payable tokenAddress;\n    uint tokenSupply;\n  }\n\n  StableToken private stableToken;\n  address private mainContractAddress;\n  uint[] private assetProjectedValuesUSD; // allows us to easily calculate the total value of all assets\n  uint private _fillableAssetsCount;\n  uint private _minFillableAmount; // minimum tokens required to fill one Asset\n\n  Asset[] private assets;\n  FillableAsset[] private fillableAssets;\n  mapping (address => uint[]) private ownerToAssetIds;\n  mapping (address => uint) private tokenToAssetIds;\n\n  modifier hasActiveAsset() {\n    require(ownerToAssetIds[msg.sender].length != 0, \"must have an active asset\");\n    _;\n  }\n\n  modifier validAsset(uint _id) {\n    require(assets[_id].owner != address(0));\n    _;\n  }\n\n  modifier onlyAssetOwner(uint _id) {\n    require(assets[_id].owner == msg.sender);\n    _;\n  }\n\n  constructor(address _stableTokenAddress, address _mainContractAddress) public {\n    stableToken = StableToken(_stableTokenAddress);\n    mainContractAddress = _mainContractAddress;\n\n    // take care of zero-index for storage array\n    assets.push(Asset({\n      owner: address(0),\n      tokenAddress: address(0),\n      filled: false,\n      funded: false,\n      fileURL: \"\"\n    }));\n\n    fillableAssets.push(FillableAsset({\n      tokenAddress: address(0),\n      tokenSupply: 0\n    }));\n\n    assetProjectedValuesUSD.push(0);\n  }\n\n  /**\n   * Sets this contract's reference to the Main contract\n   * @param _contractAddress Main contract address\n   */\n  function setMainContractAddress(address _contractAddress) public onlyOwner {\n    mainContractAddress = _contractAddress;\n  }\n\n  /**\n   * Creates an Asset record and adds it to storage, also creating a AssetToken contract instance to\n   * represent the asset\n   * @param _owner Owner of the asset\n   * @param _name Name of the asset\n   * @param _valueUSD Value of the asset in USD\n   * @param _cap token cap == _valueUSD / _valuePerTokenUSD\n   * @param _annualizedROI AROI %\n   * @param _projectedValueUSD The PROJECTED value of the asset in USD\n   * @param _timeframeMonths Time frame for the investment\n   * @param _valuePerTokenCents Value of each token\n   * @return storage array id\n   */\n  function addAsset(\n    address payable _owner,\n    string calldata _name,\n    uint _valueUSD,\n    uint _cap,\n    uint _annualizedROI,\n    uint _projectedValueUSD,\n    uint _timeframeMonths,\n    uint _valuePerTokenCents,\n    string calldata _fileURL\n  ) external {\n    AssetToken token = new AssetToken(\n      _owner,\n      address(stableToken),\n      _name,\n      _valueUSD,\n      _cap,\n      _annualizedROI,\n      _projectedValueUSD,\n      _timeframeMonths,\n      _valuePerTokenCents\n    );\n\n    // so the main contract can mint\n    token.addMinter(mainContractAddress);\n\n    // so the main contract can later reference\n    _addFillableAsset(address(token), _cap);\n\n    Asset memory record = Asset({\n      owner: _owner,\n      tokenAddress: address(token),\n      filled: false,\n      funded: false,\n      fileURL: _fileURL\n    });\n\n    // add the record to the storage array and push the index to the hashmap\n    uint id = assets.push(record) - 1;\n    ownerToAssetIds[_owner].push(id);\n    tokenToAssetIds[address(token)] = id;\n\n    // update our records for calculating\n    assetProjectedValuesUSD.push(_projectedValueUSD);\n\n    emit AssetRecordCreated(address(token), _owner, id);\n  }\n\n  /**\n   * Creates an Asset record and adds it to storage, also creating a AssetToken contract instance to\n   * represent the asset\n   * @param _id Asset id\n   * @param _fileURL URL to asset file (img, doc, etc)\n   */\n  function addAssetData(uint _id, string calldata _fileURL) external onlyAssetOwner(_id) {\n    // sanity check, must be a valid asset record\n    require(assets[_id].owner != address(0));\n\n    assets[_id].fileURL = _fileURL;\n  }\n\n  /**\n   * Update storage mappings that reflect global state of token contract funding and storage variables that\n   * assist in calculations needed for Portfolio investing\n   * NOTE: can only be called by Main contract\n   * @param _tokenAddress Address of VT contract\n   * @param _remainingSupply Remaining supply of tokens available in this VT contract\n   * @param _tokensMinted Amount of tokens just minted for this asset\n   */\n  function updateAssetLookup(address _tokenAddress, uint _remainingSupply, uint _tokensMinted) public returns(bool) {\n    require(msg.sender == mainContractAddress);\n\n    uint id = tokenToAssetIds[_tokenAddress];\n    if (_remainingSupply == 0) {\n      // delete from lookup\n      delete fillableAssets[id];\n\n      // part of calculation\n      _fillableAssetsCount = _fillableAssetsCount.sub(1);\n\n      // what if this was the min? (and there's more assets)\n      if (_tokensMinted == _minFillableAmount && _fillableAssetsCount > 0) {\n        _minFillableAmount = _calculateNewMinFillableAmount();\n      } else if (_fillableAssetsCount == 0) {\n        _minFillableAmount = 0;\n      }\n\n      // update record\n      assets[id].filled = true;\n\n      // who cares?\n      emit AssetFullyInvested(_tokenAddress, msg.sender);\n    } else {\n      fillableAssets[id].tokenSupply = _remainingSupply;\n\n      if (_remainingSupply < _minFillableAmount || _minFillableAmount == 0) {\n        _minFillableAmount = _remainingSupply;\n      }\n    }\n\n    return true;\n  }\n\n  /**\n   * Allows an Asset Owner to fund the AssetToken contract with DAI to be distributed to investors\n   * @dev should be called when the asset is sold, and any amount of DAI sent in should\n   *      equal the projected profit. this amount is divided amongst token owners based on the percentage\n   *      of tokens they own. these token owners must claim their profit, it will NOT be automatically\n   *      distributed to avoid security concerns\n   * NOTE: asset owner must have approved the transfer of DAI from their wallet to the AssetToken contract\n   * @param _amountStable Amount of DAI the owner will fund - MUST equal the asset's projected value recorded\n   * @param _assetId Asset id\n   */\n\n  function fundAsset(uint _amountStable, uint _assetId) public onlyAssetOwner(_assetId) {\n    Asset storage asset = assets[_assetId];\n\n    // sanity check\n    require(_amountStable.div(10**18) >= AssetToken(asset.tokenAddress).projectedValueUSD());\n\n    // send DAI from owner wallet to the token contract to be claimed by investors\n    require(stableToken.transferFrom(msg.sender, asset.tokenAddress, _amountStable));\n\n    asset.funded = true;\n\n    emit AssetFunded(_assetId, asset.tokenAddress);\n  }\n\n  /**\n   * Calculates and returns the sum of PROJECTED values of all assets (USD)\n   */\n  function calculateTotalProjectedValue() public view returns(uint) {\n    return _sumElementsStorage(assetProjectedValuesUSD);\n  }\n\n  /**\n   * Calculates and returns the sum of CURRENT values of all assets (T/USD)\n   * @dev For all assets in the storage array that have not been deleted, calculate its current value\n   */\n  function calculateTotalCurrentValue() public view returns(uint) {\n    uint total;\n    for (uint i = 1; i <= (assets.length - 1); i++) {\n      if (assets[i].tokenAddress != address(0)) {\n        total = total.add(AssetToken(assets[i].tokenAddress).getCurrentValue());\n      }\n    }\n\n    return total;\n  }\n\n  /**\n   * Returns the storage array id of the asset with the given VT contract address\n   * @param _tokenAddress Address of VT contract\n   */\n  function getAssetIdByToken(address _tokenAddress) public view returns(uint) {\n    return tokenToAssetIds[_tokenAddress];\n  }\n\n  /**\n   * Returns the ids of all the sender's active assets\n   */\n  function getActiveAssetIds() public hasActiveAsset view returns(uint[] memory) {\n    return ownerToAssetIds[msg.sender];\n  }\n\n  /**\n   * Returns the ids of all the given accounts's active assets\n   * NOTE: can only be called by contract owner\n   */\n  function getActiveAssetIdsOf(address _owner) public view onlyOwner returns(uint[] memory) {\n    return ownerToAssetIds[_owner];\n  }\n\n  /**\n   * Returns the number of active assets\n   */\n  function getAssetsCount() public view returns(uint) {\n    return assets.length - 1; // ignoring first one created at init\n  }\n\n  /**\n   * Returns details of the Asset with the given id\n   * @param _id Asset id\n   */\n  function getAssetById(uint _id)\n    public\n    view\n    validAsset(_id)\n    returns (\n      address owner,\n      address tokenAddress,\n      bool filled,\n      bool funded,\n      string memory fileURL\n    )\n  {\n    Asset storage asset = assets[_id];\n\n    owner = asset.owner;\n    tokenAddress = asset.tokenAddress;\n    filled = asset.filled;\n    funded = asset.funded;\n    fileURL = asset.fileURL;\n  }\n\n  /**\n   * Returns storage value for _fillableAssetsCount\n   * @dev needed to implement for interface\n   */\n  function fillableAssetsCount() public view returns(uint) {\n    return _fillableAssetsCount;\n  }\n\n  /**\n   * Returns storage value for _minFillableAmount\n   * @dev needed to implement for interface\n   */\n  function minFillableAmount() public view returns(uint) {\n    return _minFillableAmount;\n  }\n\n  /**\n   * Returns the address (or zero-address) for the fillable asset at the given id\n   * @param _id Asset id\n   */\n  function getFillableAssetAddressAt(uint _id) public view returns(address payable tokenAddress) {\n    return fillableAssets[_id].tokenAddress;\n  }\n\n  /**\n   * Adds the new asset token contract to our lookup table for PT calculations, and updates\n   * helper variables `_minFillableAmount` and `_fillableAssetsCount`\n   * @param _tokenAddress Address of new VT contract\n   * @param _cap Token cap of the asset\n   */\n  function _addFillableAsset(address payable _tokenAddress, uint _cap) internal {\n    fillableAssets.push(FillableAsset({\n      tokenAddress: _tokenAddress,\n      tokenSupply: _cap\n    }));\n\n    // is this asset fillable quicker?\n    if (_minFillableAmount == 0 || _cap < _minFillableAmount) {\n      _minFillableAmount = _cap;\n    }\n\n    _fillableAssetsCount = _fillableAssetsCount.add(1);\n  }\n\n  /**\n   * Calculate a new minimum fillable amount for all fillable assets\n   * TODO: this should be in assembly for efficiency\n   */\n  function _calculateNewMinFillableAmount() internal view returns (uint) {\n    uint[] memory supplies = new uint[](_fillableAssetsCount);\n    uint j = 0;\n    for (uint i = 1; i <= (fillableAssets.length - 1); i++) {\n      if (fillableAssets[i].tokenAddress != (address(0))) {\n        supplies[j] = fillableAssets[i].tokenSupply; // out-of-bounds should not occur...\n        j = j.add(1);\n      }\n    }\n\n    // sanity check\n    require(_fillableAssetsCount == j);\n\n    return _getMin(supplies);\n  }\n\n  /// @dev Returns the minimum value in an array.\n  /// @param self Storage array containing uint256 type variables\n  /// @return minValue The smallest value in the array\n  /// https://github.com/Modular-Network/ethereum-libraries/contracts/Array256Lib.sol\n  function _getMin(uint256[] memory self) internal view returns (uint256 minValue) {\n    assembly {\n      mstore(0x60,self)\n      minValue := sload(keccak256(0x60,0x20))\n\n      for { let i := 0 } lt(i, sload(self)) { i := add(i, 1) } {\n        switch gt(sload(add(keccak256(0x60,0x20),i)), minValue)\n        case 0 {\n          minValue := sload(add(keccak256(0x60,0x20),i))\n        }\n      }\n    }\n  }\n\n  /// @dev Sum vector\n  /// @param self Storage array containing uint256 type variables\n  /// @return sum The sum of all elements, does not check for overflow\n  /// https://github.com/Modular-Network/ethereum-libraries/contracts/Array256Lib.sol\n  function _sumElementsStorage(uint256[] storage self) internal view returns(uint256 sum) {\n    assembly {\n      mstore(0x60,self_slot)\n\n      for { let i := 0 } lt(i, sload(self_slot)) { i := add(i, 1) } {\n        sum := add(sload(add(keccak256(0x60,0x20),i)),sum)\n      }\n    }\n  }\n\n  /// @dev Sum vector\n  /// @param self Storage array containing uint256 type variables\n  /// @return sum The sum of all elements, does not check for overflow\n  /// https://github.com/Modular-Network/ethereum-libraries/contracts/Array256Lib.sol\n  function _sumElementsMemory(uint256[] memory self) internal view returns(uint256 sum) {\n    assembly {\n      mstore(0x60,self)\n\n      for { let i := 0 } lt(i, sload(self)) { i := add(i, 1) } {\n        sum := add(sload(add(keccak256(0x60,0x20),i)),sum)\n      }\n    }\n  }\n}\n",
  "sourcePath": "/Users/carlos/Desktop/imthatcarlos/eth-invest/contracts/AssetRegistry.sol",
  "compiler": {
    "name": "solc",
    "version": "0.5.8+commit.23d335f2.Emscripten.clang"
  },
  "schemaVersion": "3.0.9",
  "updatedAt": "2019-05-19T12:40:09.362Z",
  "devdoc": {
    "author": "Carlos Beltran <imthatcarlos@gmail.com>",
    "methods": {
      "addAsset(address,string,uint256,uint256,uint256,uint256,uint256,uint256,string)": {
        "params": {
          "_annualizedROI": "AROI %",
          "_cap": "token cap == _valueUSD / _valuePerTokenUSD",
          "_name": "Name of the asset",
          "_owner": "Owner of the asset",
          "_projectedValueUSD": "The PROJECTED value of the asset in USD",
          "_timeframeMonths": "Time frame for the investment",
          "_valuePerTokenCents": "Value of each token",
          "_valueUSD": "Value of the asset in USD"
        },
        "return": "storage array id"
      },
      "addAssetData(uint256,string)": {
        "params": {
          "_fileURL": "URL to asset file (img, doc, etc)",
          "_id": "Asset id"
        }
      },
      "calculateTotalCurrentValue()": {
        "details": "For all assets in the storage array that have not been deleted, calculate its current value"
      },
      "fillableAssetsCount()": {
        "details": "needed to implement for interface"
      },
      "fundAsset(uint256,uint256)": {
        "details": "should be called when the asset is sold, and any amount of DAI sent in should     equal the projected profit. this amount is divided amongst token owners based on the percentage     of tokens they own. these token owners must claim their profit, it will NOT be automatically     distributed to avoid security concerns NOTE: asset owner must have approved the transfer of DAI from their wallet to the AssetToken contract",
        "params": {
          "_amountStable": "Amount of DAI the owner will fund - MUST equal the asset's projected value recorded",
          "_assetId": "Asset id"
        }
      },
      "getAssetById(uint256)": {
        "params": {
          "_id": "Asset id"
        }
      },
      "getAssetIdByToken(address)": {
        "params": {
          "_tokenAddress": "Address of VT contract"
        }
      },
      "getFillableAssetAddressAt(uint256)": {
        "params": {
          "_id": "Asset id"
        }
      },
      "isOwner()": {
        "return": "true if `msg.sender` is the owner of the contract."
      },
      "minFillableAmount()": {
        "details": "needed to implement for interface"
      },
      "owner()": {
        "return": "the address of the owner."
      },
      "pause()": {
        "details": "called by the owner to pause, triggers stopped state"
      },
      "paused()": {
        "return": "true if the contract is paused, false otherwise."
      },
      "renounceOwnership()": {
        "details": "Allows the current owner to relinquish control of the contract. It will not be possible to call the functions with the `onlyOwner` modifier anymore."
      },
      "setMainContractAddress(address)": {
        "params": {
          "_contractAddress": "Main contract address"
        }
      },
      "transferOwnership(address)": {
        "details": "Allows the current owner to transfer control of the contract to a newOwner.",
        "params": {
          "newOwner": "The address to transfer ownership to."
        }
      },
      "unpause()": {
        "details": "called by the owner to unpause, returns to normal state"
      },
      "updateAssetLookup(address,uint256,uint256)": {
        "params": {
          "_remainingSupply": "Remaining supply of tokens available in this VT contract",
          "_tokenAddress": "Address of VT contract",
          "_tokensMinted": "Amount of tokens just minted for this asset"
        }
      }
    },
    "title": "AssetRegistry This contract manages the functionality for assets - adding records, as well as reading data. It allows users to add assets to the platform, and asset owners to fund their assets once sold."
  },
  "userdoc": {
    "methods": {
      "addAsset(address,string,uint256,uint256,uint256,uint256,uint256,uint256,string)": {
        "notice": "Creates an Asset record and adds it to storage, also creating a AssetToken contract instance to represent the asset"
      },
      "addAssetData(uint256,string)": {
        "notice": "Creates an Asset record and adds it to storage, also creating a AssetToken contract instance to represent the asset"
      },
      "calculateTotalCurrentValue()": {
        "notice": "Calculates and returns the sum of CURRENT values of all assets (T/USD)"
      },
      "calculateTotalProjectedValue()": {
        "notice": "Calculates and returns the sum of PROJECTED values of all assets (USD)"
      },
      "fillableAssetsCount()": {
        "notice": "Returns storage value for _fillableAssetsCount"
      },
      "fundAsset(uint256,uint256)": {
        "notice": "Allows an Asset Owner to fund the AssetToken contract with DAI to be distributed to investors"
      },
      "getActiveAssetIds()": {
        "notice": "Returns the ids of all the sender's active assets"
      },
      "getActiveAssetIdsOf(address)": {
        "notice": "Returns the ids of all the given accounts's active assets NOTE: can only be called by contract owner"
      },
      "getAssetById(uint256)": {
        "notice": "Returns details of the Asset with the given id"
      },
      "getAssetIdByToken(address)": {
        "notice": "Returns the storage array id of the asset with the given VT contract address"
      },
      "getAssetsCount()": {
        "notice": "Returns the number of active assets"
      },
      "getFillableAssetAddressAt(uint256)": {
        "notice": "Returns the address (or zero-address) for the fillable asset at the given id"
      },
      "minFillableAmount()": {
        "notice": "Returns storage value for _minFillableAmount"
      },
      "renounceOwnership()": {
        "notice": "Renouncing ownership will leave the contract without an owner, thereby removing any functionality that is only available to the owner."
      },
      "setMainContractAddress(address)": {
        "notice": "Sets this contract's reference to the Main contract"
      },
      "updateAssetLookup(address,uint256,uint256)": {
        "notice": "Update storage mappings that reflect global state of token contract funding and storage variables that assist in calculations needed for Portfolio investing NOTE: can only be called by Main contract"
      }
    }
  }
}