{
  "contractName": "Main",
  "abi": [
    {
      "constant": false,
      "inputs": [],
      "name": "unpause",
      "outputs": [],
      "payable": false,
      "stateMutability": "nonpayable",
      "type": "function"
    },
    {
      "constant": true,
      "inputs": [
        {
          "name": "account",
          "type": "address"
        }
      ],
      "name": "isPauser",
      "outputs": [
        {
          "name": "",
          "type": "bool"
        }
      ],
      "payable": false,
      "stateMutability": "view",
      "type": "function"
    },
    {
      "constant": true,
      "inputs": [],
      "name": "paused",
      "outputs": [
        {
          "name": "",
          "type": "bool"
        }
      ],
      "payable": false,
      "stateMutability": "view",
      "type": "function"
    },
    {
      "constant": false,
      "inputs": [],
      "name": "renouncePauser",
      "outputs": [],
      "payable": false,
      "stateMutability": "nonpayable",
      "type": "function"
    },
    {
      "constant": false,
      "inputs": [],
      "name": "renounceOwnership",
      "outputs": [],
      "payable": false,
      "stateMutability": "nonpayable",
      "type": "function"
    },
    {
      "constant": false,
      "inputs": [
        {
          "name": "account",
          "type": "address"
        }
      ],
      "name": "addPauser",
      "outputs": [],
      "payable": false,
      "stateMutability": "nonpayable",
      "type": "function"
    },
    {
      "constant": false,
      "inputs": [],
      "name": "pause",
      "outputs": [],
      "payable": false,
      "stateMutability": "nonpayable",
      "type": "function"
    },
    {
      "constant": true,
      "inputs": [],
      "name": "VALUE_PER_VT_TOKENS_CENTS",
      "outputs": [
        {
          "name": "",
          "type": "uint256"
        }
      ],
      "payable": false,
      "stateMutability": "view",
      "type": "function"
    },
    {
      "constant": true,
      "inputs": [],
      "name": "owner",
      "outputs": [
        {
          "name": "",
          "type": "address"
        }
      ],
      "payable": false,
      "stateMutability": "view",
      "type": "function"
    },
    {
      "constant": true,
      "inputs": [],
      "name": "isOwner",
      "outputs": [
        {
          "name": "",
          "type": "bool"
        }
      ],
      "payable": false,
      "stateMutability": "view",
      "type": "function"
    },
    {
      "constant": false,
      "inputs": [
        {
          "name": "newOwner",
          "type": "address"
        }
      ],
      "name": "transferOwnership",
      "outputs": [],
      "payable": false,
      "stateMutability": "nonpayable",
      "type": "function"
    },
    {
      "inputs": [
        {
          "name": "_stableTokenAddress",
          "type": "address"
        }
      ],
      "payable": false,
      "stateMutability": "nonpayable",
      "type": "constructor"
    },
    {
      "anonymous": false,
      "inputs": [
        {
          "indexed": true,
          "name": "tokenAddress",
          "type": "address"
        },
        {
          "indexed": false,
          "name": "investmentOwner",
          "type": "address"
        },
        {
          "indexed": false,
          "name": "id",
          "type": "uint256"
        }
      ],
      "name": "InvestmentRecordCreated",
      "type": "event"
    },
    {
      "anonymous": false,
      "inputs": [
        {
          "indexed": false,
          "name": "account",
          "type": "address"
        }
      ],
      "name": "Paused",
      "type": "event"
    },
    {
      "anonymous": false,
      "inputs": [
        {
          "indexed": false,
          "name": "account",
          "type": "address"
        }
      ],
      "name": "Unpaused",
      "type": "event"
    },
    {
      "anonymous": false,
      "inputs": [
        {
          "indexed": true,
          "name": "account",
          "type": "address"
        }
      ],
      "name": "PauserAdded",
      "type": "event"
    },
    {
      "anonymous": false,
      "inputs": [
        {
          "indexed": true,
          "name": "account",
          "type": "address"
        }
      ],
      "name": "PauserRemoved",
      "type": "event"
    },
    {
      "anonymous": false,
      "inputs": [
        {
          "indexed": true,
          "name": "previousOwner",
          "type": "address"
        },
        {
          "indexed": true,
          "name": "newOwner",
          "type": "address"
        }
      ],
      "name": "OwnershipTransferred",
      "type": "event"
    },
    {
      "constant": false,
      "inputs": [
        {
          "name": "_contractAddress",
          "type": "address"
        }
      ],
      "name": "setAssetRegistry",
      "outputs": [],
      "payable": false,
      "stateMutability": "nonpayable",
      "type": "function"
    },
    {
      "constant": false,
      "inputs": [
        {
          "name": "_amountStable",
          "type": "uint256"
        },
        {
          "name": "_tokenAddress",
          "type": "address"
        }
      ],
      "name": "invest",
      "outputs": [],
      "payable": false,
      "stateMutability": "nonpayable",
      "type": "function"
    },
    {
      "constant": true,
      "inputs": [],
      "name": "getActiveInvestmentIds",
      "outputs": [
        {
          "name": "",
          "type": "uint256[]"
        }
      ],
      "payable": false,
      "stateMutability": "view",
      "type": "function"
    },
    {
      "constant": true,
      "inputs": [
        {
          "name": "_owner",
          "type": "address"
        }
      ],
      "name": "getActiveInvestmentIdsOf",
      "outputs": [
        {
          "name": "",
          "type": "uint256[]"
        }
      ],
      "payable": false,
      "stateMutability": "view",
      "type": "function"
    },
    {
      "constant": true,
      "inputs": [],
      "name": "getInvestmentsCount",
      "outputs": [
        {
          "name": "",
          "type": "uint256"
        }
      ],
      "payable": false,
      "stateMutability": "view",
      "type": "function"
    },
    {
      "constant": true,
      "inputs": [
        {
          "name": "_id",
          "type": "uint256"
        }
      ],
      "name": "getInvestmentById",
      "outputs": [
        {
          "name": "tokenType",
          "type": "uint8"
        },
        {
          "name": "owner",
          "type": "address"
        },
        {
          "name": "tokenAddress",
          "type": "address"
        },
        {
          "name": "amountDAI",
          "type": "uint256"
        },
        {
          "name": "amountTokens",
          "type": "uint256"
        },
        {
          "name": "createdAt",
          "type": "uint256"
        },
        {
          "name": "timeframeMonths",
          "type": "uint256"
        }
      ],
      "payable": false,
      "stateMutability": "view",
      "type": "function"
    }
  ],
  "bytecode": "0x6080604052600a6003553480156200001657600080fd5b5060405160208062001df7833981018060405260208110156200003857600080fd5b8101908080519060200190929190505050336000806101000a81548173ffffffffffffffffffffffffffffffffffffffff021916908373ffffffffffffffffffffffffffffffffffffffff1602179055506000809054906101000a900473ffffffffffffffffffffffffffffffffffffffff1673ffffffffffffffffffffffffffffffffffffffff16600073ffffffffffffffffffffffffffffffffffffffff167f8be0079c531659141344cd1fd0a4f28419497f9722a3daafe3b4186f6b6457e060405160405180910390a36200011633620002fb60201b60201c565b6000600260006101000a81548160ff02191690831515021790555080600460006101000a81548173ffffffffffffffffffffffffffffffffffffffff021916908373ffffffffffffffffffffffffffffffffffffffff16021790555060066040518060e00160405280600060018111156200018d57fe5b8152602001600073ffffffffffffffffffffffffffffffffffffffff168152602001600073ffffffffffffffffffffffffffffffffffffffff16815260200160008152602001600081526020016000815260200160008152509080600181540180825580915050906001820390600052602060002090600602016000909192909190915060008201518160000160006101000a81548160ff021916908360018111156200023657fe5b021790555060208201518160000160016101000a81548173ffffffffffffffffffffffffffffffffffffffff021916908373ffffffffffffffffffffffffffffffffffffffff16021790555060408201518160010160006101000a81548173ffffffffffffffffffffffffffffffffffffffff021916908373ffffffffffffffffffffffffffffffffffffffff160217905550606082015181600201556080820151816003015560a0820151816004015560c0820151816005015550505050620004a5565b620003168160016200035c60201b620017f61790919060201c565b8073ffffffffffffffffffffffffffffffffffffffff167f6719d08c1888103bea251a4ed56406bd0c3e69723c8a1686e017e7bbe159b6f860405160405180910390a250565b600073ffffffffffffffffffffffffffffffffffffffff168173ffffffffffffffffffffffffffffffffffffffff1614156200039757600080fd5b620003a982826200041260201b60201c565b15620003b457600080fd5b60018260000160008373ffffffffffffffffffffffffffffffffffffffff1673ffffffffffffffffffffffffffffffffffffffff16815260200190815260200160002060006101000a81548160ff0219169083151502179055505050565b60008073ffffffffffffffffffffffffffffffffffffffff168273ffffffffffffffffffffffffffffffffffffffff1614156200044e57600080fd5b8260000160008373ffffffffffffffffffffffffffffffffffffffff1673ffffffffffffffffffffffffffffffffffffffff16815260200190815260200160002060009054906101000a900460ff16905092915050565b61194280620004b56000396000f3fe608060405234801561001057600080fd5b506004361061010b5760003560e01c8063715018a6116100a25780638da5cb5b116100715780638da5cb5b1461037c5780638f32d59b146103c6578063d6c48c7f146103e8578063e84d033c146104ba578063f2fde38b146104fe5761010b565b8063715018a61461030657806382dc1ec4146103105780638456cb5914610354578063893094fd1461035e5761010b565b80635c975abb116100de5780635c975abb146101e25780636149c6e614610204578063644256341461029d5780636ef8d66d146102fc5761010b565b806337ea2998146101105780633d103b971461012e5780633f4ba83a1461017c57806346fbf68e14610186575b600080fd5b610118610542565b6040518082815260200191505060405180910390f35b61017a6004803603604081101561014457600080fd5b8101908080359060200190929190803573ffffffffffffffffffffffffffffffffffffffff169060200190929190505050610552565b005b610184610b8a565b005b6101c86004803603602081101561019c57600080fd5b81019080803573ffffffffffffffffffffffffffffffffffffffff169060200190929190505050610c35565b604051808215151515815260200191505060405180910390f35b6101ea610c52565b604051808215151515815260200191505060405180910390f35b6102466004803603602081101561021a57600080fd5b81019080803573ffffffffffffffffffffffffffffffffffffffff169060200190929190505050610c69565b6040518080602001828103825283818151815260200191508051906020019060200280838360005b8381101561028957808201518184015260208101905061026e565b505050509050019250505060405180910390f35b6102a5610d11565b6040518080602001828103825283818151815260200191508051906020019060200280838360005b838110156102e85780820151818401526020810190506102cd565b505050509050019250505060405180910390f35b610304610e5f565b005b61030e610e6a565b005b6103526004803603602081101561032657600080fd5b81019080803573ffffffffffffffffffffffffffffffffffffffff169060200190929190505050610f3a565b005b61035c610f58565b005b610366611004565b6040518082815260200191505060405180910390f35b61038461100a565b604051808273ffffffffffffffffffffffffffffffffffffffff1673ffffffffffffffffffffffffffffffffffffffff16815260200191505060405180910390f35b6103ce611033565b604051808215151515815260200191505060405180910390f35b610414600480360360208110156103fe57600080fd5b810190808035906020019092919050505061108a565b6040518088600181111561042457fe5b60ff1681526020018773ffffffffffffffffffffffffffffffffffffffff1673ffffffffffffffffffffffffffffffffffffffff1681526020018673ffffffffffffffffffffffffffffffffffffffff1673ffffffffffffffffffffffffffffffffffffffff16815260200185815260200184815260200183815260200182815260200197505050505050505060405180910390f35b6104fc600480360360208110156104d057600080fd5b81019080803573ffffffffffffffffffffffffffffffffffffffff1690602001909291905050506111b8565b005b6105406004803603602081101561051457600080fd5b81019080803573ffffffffffffffffffffffffffffffffffffffff16906020019092919050505061120d565b005b6000600160068054905003905090565b600081905060006105ec8273ffffffffffffffffffffffffffffffffffffffff1663b8613ae86040518163ffffffff1660e01b815260040160206040518083038186803b1580156105a257600080fd5b505afa1580156105b6573d6000803e3d6000fd5b505050506040513d60208110156105cc57600080fd5b81019080805190602001909291905050508561122a90919063ffffffff16565b9050610681818373ffffffffffffffffffffffffffffffffffffffff166318160ddd6040518163ffffffff1660e01b815260040160206040518083038186803b15801561063857600080fd5b505afa15801561064c573d6000803e3d6000fd5b505050506040513d602081101561066257600080fd5b810190808051906020019092919050505061125090919063ffffffff16565b8273ffffffffffffffffffffffffffffffffffffffff1663355274ea6040518163ffffffff1660e01b815260040160206040518083038186803b1580156106c757600080fd5b505afa1580156106db573d6000803e3d6000fd5b505050506040513d60208110156106f157600080fd5b8101908080519060200190929190505050101561070d57600080fd5b61079b60008583868673ffffffffffffffffffffffffffffffffffffffff1663821f12196040518163ffffffff1660e01b815260040160206040518083038186803b15801561075b57600080fd5b505afa15801561076f573d6000803e3d6000fd5b505050506040513d602081101561078557600080fd5b810190808051906020019092919050505061126f565b600460009054906101000a900473ffffffffffffffffffffffffffffffffffffffff1673ffffffffffffffffffffffffffffffffffffffff166323b872dd3385876040518463ffffffff1660e01b8152600401808473ffffffffffffffffffffffffffffffffffffffff1673ffffffffffffffffffffffffffffffffffffffff1681526020018373ffffffffffffffffffffffffffffffffffffffff1673ffffffffffffffffffffffffffffffffffffffff1681526020018281526020019350505050602060405180830381600087803b15801561087857600080fd5b505af115801561088c573d6000803e3d6000fd5b505050506040513d60208110156108a257600080fd5b81019080805190602001909291905050506108bc57600080fd5b8173ffffffffffffffffffffffffffffffffffffffff166340c10f1933836040518363ffffffff1660e01b8152600401808373ffffffffffffffffffffffffffffffffffffffff1673ffffffffffffffffffffffffffffffffffffffff16815260200182815260200192505050602060405180830381600087803b15801561094357600080fd5b505af1158015610957573d6000803e3d6000fd5b505050506040513d602081101561096d57600080fd5b8101908080519060200190929190505050506000610a948373ffffffffffffffffffffffffffffffffffffffff166318160ddd6040518163ffffffff1660e01b815260040160206040518083038186803b1580156109ca57600080fd5b505afa1580156109de573d6000803e3d6000fd5b505050506040513d60208110156109f457600080fd5b81019080805190602001909291905050508473ffffffffffffffffffffffffffffffffffffffff1663355274ea6040518163ffffffff1660e01b815260040160206040518083038186803b158015610a4b57600080fd5b505afa158015610a5f573d6000803e3d6000fd5b505050506040513d6020811015610a7557600080fd5b81019080805190602001909291905050506114ed90919063ffffffff16565b9050600560009054906101000a900473ffffffffffffffffffffffffffffffffffffffff1673ffffffffffffffffffffffffffffffffffffffff1663b9b916148583856040518463ffffffff1660e01b8152600401808473ffffffffffffffffffffffffffffffffffffffff1673ffffffffffffffffffffffffffffffffffffffff1681526020018381526020018281526020019350505050602060405180830381600087803b158015610b4757600080fd5b505af1158015610b5b573d6000803e3d6000fd5b505050506040513d6020811015610b7157600080fd5b8101908080519060200190929190505050505050505050565b610b9333610c35565b610b9c57600080fd5b600260009054906101000a900460ff16610bb557600080fd5b6000600260006101000a81548160ff0219169083151502179055507f5db9ee0a495bf2e6ff9c91a7834c1ba4fdd244a5e8aa4e537bd38aeae4b073aa33604051808273ffffffffffffffffffffffffffffffffffffffff1673ffffffffffffffffffffffffffffffffffffffff16815260200191505060405180910390a1565b6000610c4b82600161150d90919063ffffffff16565b9050919050565b6000600260009054906101000a900460ff16905090565b6060610c73611033565b610c7c57600080fd5b600760008373ffffffffffffffffffffffffffffffffffffffff1673ffffffffffffffffffffffffffffffffffffffff168152602001908152602001600020805480602002602001604051908101604052809291908181526020018280548015610d0557602002820191906000526020600020905b815481526020019060010190808311610cf1575b50505050509050919050565b60606000600760003373ffffffffffffffffffffffffffffffffffffffff1673ffffffffffffffffffffffffffffffffffffffff168152602001908152602001600020805490501415610dcc576040517f08c379a000000000000000000000000000000000000000000000000000000000815260040180806020018281038252601e8152602001807f6d757374206861766520616e2061637469766520696e766573746d656e74000081525060200191505060405180910390fd5b600760003373ffffffffffffffffffffffffffffffffffffffff1673ffffffffffffffffffffffffffffffffffffffff168152602001908152602001600020805480602002602001604051908101604052809291908181526020018280548015610e5557602002820191906000526020600020905b815481526020019060010190808311610e41575b5050505050905090565b610e683361159f565b565b610e72611033565b610e7b57600080fd5b600073ffffffffffffffffffffffffffffffffffffffff166000809054906101000a900473ffffffffffffffffffffffffffffffffffffffff1673ffffffffffffffffffffffffffffffffffffffff167f8be0079c531659141344cd1fd0a4f28419497f9722a3daafe3b4186f6b6457e060405160405180910390a360008060006101000a81548173ffffffffffffffffffffffffffffffffffffffff021916908373ffffffffffffffffffffffffffffffffffffffff160217905550565b610f4333610c35565b610f4c57600080fd5b610f55816115f9565b50565b610f6133610c35565b610f6a57600080fd5b600260009054906101000a900460ff1615610f8457600080fd5b6001600260006101000a81548160ff0219169083151502179055507f62e78cea01bee320cd4e420270b5ea74000d11b0c9f74754ebdbfc544b05a25833604051808273ffffffffffffffffffffffffffffffffffffffff1673ffffffffffffffffffffffffffffffffffffffff16815260200191505060405180910390a1565b60035481565b60008060009054906101000a900473ffffffffffffffffffffffffffffffffffffffff16905090565b60008060009054906101000a900473ffffffffffffffffffffffffffffffffffffffff1673ffffffffffffffffffffffffffffffffffffffff163373ffffffffffffffffffffffffffffffffffffffff1614905090565b600080600080600080600087600073ffffffffffffffffffffffffffffffffffffffff16600682815481106110bb57fe5b906000526020600020906006020160000160019054906101000a900473ffffffffffffffffffffffffffffffffffffffff1673ffffffffffffffffffffffffffffffffffffffff16141561110e57600080fd5b600060068a8154811061111d57fe5b906000526020600020906006020190508060000160009054906101000a900460ff1698508060000160019054906101000a900473ffffffffffffffffffffffffffffffffffffffff1697508060010160009054906101000a900473ffffffffffffffffffffffffffffffffffffffff169650806002015495508060030154945080600401549350806005015492505050919395979092949650565b6111c0611033565b6111c957600080fd5b80600560006101000a81548173ffffffffffffffffffffffffffffffffffffffff021916908373ffffffffffffffffffffffffffffffffffffffff16021790555050565b611215611033565b61121e57600080fd5b61122781611653565b50565b600080821161123857600080fd5b600082848161124357fe5b0490508091505092915050565b60008082840190508381101561126557600080fd5b8091505092915050565b6112776118a2565b6040518060e0016040528087600181111561128e57fe5b81526020013373ffffffffffffffffffffffffffffffffffffffff1681526020018473ffffffffffffffffffffffffffffffffffffffff168152602001868152602001858152602001428152602001838152509050600060016006839080600181540180825580915050906001820390600052602060002090600602016000909192909190915060008201518160000160006101000a81548160ff0219169083600181111561133957fe5b021790555060208201518160000160016101000a81548173ffffffffffffffffffffffffffffffffffffffff021916908373ffffffffffffffffffffffffffffffffffffffff16021790555060408201518160010160006101000a81548173ffffffffffffffffffffffffffffffffffffffff021916908373ffffffffffffffffffffffffffffffffffffffff160217905550606082015181600201556080820151816003015560a0820151816004015560c082015181600501555050039050600760003373ffffffffffffffffffffffffffffffffffffffff1673ffffffffffffffffffffffffffffffffffffffff1681526020019081526020016000208190806001815401808255809150509060018203906000526020600020016000909192909190915055508373ffffffffffffffffffffffffffffffffffffffff167f1f8b12cc9ab0618be3315e34029d8c53584f503ebbcae9de9b47933a51aecce83383604051808373ffffffffffffffffffffffffffffffffffffffff1673ffffffffffffffffffffffffffffffffffffffff1681526020018281526020019250505060405180910390a250505050505050565b6000828211156114fc57600080fd5b600082840390508091505092915050565b60008073ffffffffffffffffffffffffffffffffffffffff168273ffffffffffffffffffffffffffffffffffffffff16141561154857600080fd5b8260000160008373ffffffffffffffffffffffffffffffffffffffff1673ffffffffffffffffffffffffffffffffffffffff16815260200190815260200160002060009054906101000a900460ff16905092915050565b6115b381600161174b90919063ffffffff16565b8073ffffffffffffffffffffffffffffffffffffffff167fcd265ebaf09df2871cc7bd4133404a235ba12eff2041bb89d9c714a2621c7c7e60405160405180910390a250565b61160d8160016117f690919063ffffffff16565b8073ffffffffffffffffffffffffffffffffffffffff167f6719d08c1888103bea251a4ed56406bd0c3e69723c8a1686e017e7bbe159b6f860405160405180910390a250565b600073ffffffffffffffffffffffffffffffffffffffff168173ffffffffffffffffffffffffffffffffffffffff16141561168d57600080fd5b8073ffffffffffffffffffffffffffffffffffffffff166000809054906101000a900473ffffffffffffffffffffffffffffffffffffffff1673ffffffffffffffffffffffffffffffffffffffff167f8be0079c531659141344cd1fd0a4f28419497f9722a3daafe3b4186f6b6457e060405160405180910390a3806000806101000a81548173ffffffffffffffffffffffffffffffffffffffff021916908373ffffffffffffffffffffffffffffffffffffffff16021790555050565b600073ffffffffffffffffffffffffffffffffffffffff168173ffffffffffffffffffffffffffffffffffffffff16141561178557600080fd5b61178f828261150d565b61179857600080fd5b60008260000160008373ffffffffffffffffffffffffffffffffffffffff1673ffffffffffffffffffffffffffffffffffffffff16815260200190815260200160002060006101000a81548160ff0219169083151502179055505050565b600073ffffffffffffffffffffffffffffffffffffffff168173ffffffffffffffffffffffffffffffffffffffff16141561183057600080fd5b61183a828261150d565b1561184457600080fd5b60018260000160008373ffffffffffffffffffffffffffffffffffffffff1673ffffffffffffffffffffffffffffffffffffffff16815260200190815260200160002060006101000a81548160ff0219169083151502179055505050565b6040518060e00160405280600060018111156118ba57fe5b8152602001600073ffffffffffffffffffffffffffffffffffffffff168152602001600073ffffffffffffffffffffffffffffffffffffffff16815260200160008152602001600081526020016000815260200160008152509056fea165627a7a723058200ef100ab5a198a27bc3db2badaca6a13f39ee60fe5d748b3b386144f62f813850029",
  "source": "pragma solidity ^0.5.5;\n\nimport \"./../node_modules/openzeppelin-solidity/contracts/ownership/Ownable.sol\";\nimport \"./../node_modules/openzeppelin-solidity/contracts/lifecycle/Pausable.sol\";\nimport \"./../node_modules/openzeppelin-solidity/contracts/math/SafeMath.sol\";\nimport \"./IAssetToken.sol\";\nimport \"./IAssetRegistry.sol\";\nimport \"./StableToken.sol\";\n\n/**\n * @title Main\n *\n * @author Carlos Beltran <imthatcarlos@gmail.com>\n */\ncontract Main is Ownable, Pausable {\n  using SafeMath for uint;\n\n  event InvestmentRecordCreated(address indexed tokenAddress, address investmentOwner, uint id);\n\n  enum TokenType { Asset, NFT }\n\n  struct Investment {\n    TokenType tokenType;\n    address owner;\n    address tokenAddress;\n    uint amountDAI;\n    uint amountTokens;\n    uint createdAt;\n    uint timeframeMonths;\n  }\n\n  uint public VALUE_PER_VT_TOKENS_CENTS = 10;\n\n  StableToken private stableToken;\n  IAssetRegistry private assetRegistry;\n\n  Investment[] private investments;\n  mapping (address => uint[]) private activeInvestmentIds;\n\n  modifier hasActiveInvestment() {\n    require(activeInvestmentIds[msg.sender].length != 0, \"must have an active investment\");\n    _;\n  }\n\n  modifier validInvestment(uint _id) {\n    require(investments[_id].owner != address(0));\n    _;\n  }\n\n  /**\n   * Contract constructor\n   * @param _stableTokenAddress Address of T token\n   */\n  constructor(address _stableTokenAddress) public {\n    stableToken = StableToken(_stableTokenAddress);\n\n    // take care of zero-index for storage arrays\n    investments.push(Investment({\n      tokenType: TokenType.Asset,\n      owner: address(0),\n      tokenAddress: address(0),\n      amountDAI: 0,\n      amountTokens: 0,\n      createdAt: 0,\n      timeframeMonths: 0\n    }));\n  }\n\n  /**\n   * Sets this contract's reference to AssetRegistry contract\n   * @param _contractAddress Address of AssetRegistry\n   */\n  function setAssetRegistry(address _contractAddress) public onlyOwner {\n    assetRegistry = IAssetRegistry(_contractAddress);\n  }\n\n  /**\n   * Allows the sender to invest in the Asset represented by the AssetToken with the given address\n   * NOTE: The sender must have approved the transfer of DAI to this contract\n   * @param _amountStable Amount of DAI the sender is investing\n   * @param _tokenAddress Address of the AssetToken contract\n   */\n  function invest(uint _amountStable, address payable _tokenAddress) public {\n    IAssetToken tokenContract = IAssetToken(_tokenAddress);\n\n    // total amount of tokens to mint for the sender\n    uint amountTokens = _amountStable.div(tokenContract.valuePerTokenCents());\n\n    // sanity check, make sure we don't overflow\n    require(tokenContract.cap() >= tokenContract.totalSupply().add(amountTokens));\n\n    // add to storage\n    _createInvestmentRecord(\n      TokenType.Asset,\n      _amountStable,\n      amountTokens,\n      _tokenAddress,\n      tokenContract.timeframeMonths()\n    );\n\n    // transfer the DAI tokens to the VT token contract\n    require(stableToken.transferFrom(msg.sender, _tokenAddress, _amountStable));\n\n    // mint VT tokens for them\n    tokenContract.mint(msg.sender, amountTokens);\n\n    // update our records of token supplies\n    uint remainingSupply = tokenContract.cap().sub(tokenContract.totalSupply());\n    assetRegistry.updateAssetLookup(_tokenAddress, remainingSupply, amountTokens);\n  }\n\n  /**\n   * Returns the ids of all the sender's active assets\n   */\n  function getActiveInvestmentIds() public hasActiveInvestment view returns(uint[] memory) {\n    return activeInvestmentIds[msg.sender];\n  }\n\n  /**\n   * Returns the ids of all the given accounts's active investments\n   * NOTE: can only be called by contract owner\n   * @param _owner Owner address of assets\n   */\n  function getActiveInvestmentIdsOf(address _owner) public view onlyOwner returns(uint[] memory) {\n    return activeInvestmentIds[_owner];\n  }\n\n  /**\n   * Returns the number of active investments\n   */\n  function getInvestmentsCount() public view returns(uint) {\n    return investments.length - 1; // ignoring first one created at init\n  }\n\n  /**\n   * Returns details of the Investment with the given id\n   * @param _id Investment id\n   */\n  function getInvestmentById(uint _id) public view validInvestment(_id)\n    returns (\n      TokenType tokenType,\n      address owner,\n      address tokenAddress,\n      uint amountDAI,\n      uint amountTokens,\n      uint createdAt,\n      uint timeframeMonths\n    )\n  {\n    Investment storage inv = investments[_id];\n\n    tokenType = inv.tokenType;\n    owner = inv.owner;\n    tokenAddress = inv.tokenAddress;\n    amountDAI = inv.amountDAI;\n    amountTokens = inv.amountTokens;\n    createdAt = inv.createdAt;\n    timeframeMonths = inv.timeframeMonths;\n  }\n\n  /**\n   * Creates an Investment record and adds it to storage\n   * @param _amountDAI Amount of DAI tokens invested\n   * @param _amountTokens Amount of tokens minted in the VT token contract\n   @ @param _tokenAddress Address of VT token contract\n   @ param _timeframeMonths timeframe to be sold (months)\n   */\n  function _createInvestmentRecord(\n    TokenType _tokenType,\n    uint _amountDAI,\n    uint _amountTokens,\n    address _tokenAddress,\n    uint _timeframeMonths\n  ) internal {\n    Investment memory record = Investment({\n      tokenType: _tokenType,\n      owner: msg.sender,\n      tokenAddress: _tokenAddress,\n      amountDAI: _amountDAI,\n      amountTokens: _amountTokens,\n      createdAt: block.timestamp,\n      timeframeMonths: _timeframeMonths\n    });\n\n    // add the record to the storage array and push the index to the hashmap\n    uint id = investments.push(record) - 1;\n    activeInvestmentIds[msg.sender].push(id);\n\n    emit InvestmentRecordCreated(_tokenAddress, msg.sender, id);\n  }\n}\n",
  "sourcePath": "/Users/carlos/Desktop/imthatcarlos/eth-invest/contracts/Main.sol",
  "compiler": {
    "name": "solc",
    "version": "0.5.8+commit.23d335f2.Emscripten.clang"
  },
  "schemaVersion": "3.0.9",
  "updatedAt": "2019-05-18T17:23:23.334Z",
  "devdoc": {
    "author": "Carlos Beltran <imthatcarlos@gmail.com>",
    "methods": {
      "constructor": {
        "params": {
          "_stableTokenAddress": "Address of T token"
        }
      },
      "getActiveInvestmentIdsOf(address)": {
        "params": {
          "_owner": "Owner address of assets"
        }
      },
      "getInvestmentById(uint256)": {
        "params": {
          "_id": "Investment id"
        }
      },
      "invest(uint256,address)": {
        "params": {
          "_amountStable": "Amount of DAI the sender is investing",
          "_tokenAddress": "Address of the AssetToken contract"
        }
      },
      "isOwner()": {
        "return": "true if `msg.sender` is the owner of the contract."
      },
      "owner()": {
        "return": "the address of the owner."
      },
      "pause()": {
        "details": "called by the owner to pause, triggers stopped state"
      },
      "paused()": {
        "return": "true if the contract is paused, false otherwise."
      },
      "renounceOwnership()": {
        "details": "Allows the current owner to relinquish control of the contract. It will not be possible to call the functions with the `onlyOwner` modifier anymore."
      },
      "setAssetRegistry(address)": {
        "params": {
          "_contractAddress": "Address of AssetRegistry"
        }
      },
      "transferOwnership(address)": {
        "details": "Allows the current owner to transfer control of the contract to a newOwner.",
        "params": {
          "newOwner": "The address to transfer ownership to."
        }
      },
      "unpause()": {
        "details": "called by the owner to unpause, returns to normal state"
      }
    },
    "title": "Main"
  },
  "userdoc": {
    "methods": {
      "constructor": "Contract constructor",
      "getActiveInvestmentIds()": {
        "notice": "Returns the ids of all the sender's active assets"
      },
      "getActiveInvestmentIdsOf(address)": {
        "notice": "Returns the ids of all the given accounts's active investments NOTE: can only be called by contract owner"
      },
      "getInvestmentById(uint256)": {
        "notice": "Returns details of the Investment with the given id"
      },
      "getInvestmentsCount()": {
        "notice": "Returns the number of active investments"
      },
      "invest(uint256,address)": {
        "notice": "Allows the sender to invest in the Asset represented by the AssetToken with the given address NOTE: The sender must have approved the transfer of DAI to this contract"
      },
      "renounceOwnership()": {
        "notice": "Renouncing ownership will leave the contract without an owner, thereby removing any functionality that is only available to the owner."
      },
      "setAssetRegistry(address)": {
        "notice": "Sets this contract's reference to AssetRegistry contract"
      }
    }
  }
}